:100000000C9436050C9497050C9498080C9497055D
:100010000C9497050C9497050C9497050C949705F0
:100020000C9497050C9497050C9497050C942B163B
:100030000C9497050C94DE230C9497050C9497056B
:100040000C9497050C9497050C9497050C94332405
:100050000C9497050C9497050C9497050C949705B0
:100060000C9497050C9497050C9497050C949705A0
:100070000C949705680A6A0A760A760A760A760A5E
:10008000760A760A6C0A6E0A700A760A760A6A0A94
:10009000780A760A760A320A680A760A760A6E0AB8
:1000A000760A760A760A760A760A760A700A680A64
:1000B000540A760A580A760A760A760A340A6C0ACC
:1000C000760A760A620A760A760A760A360A740A86
:1000D000760A560A760A6A0A760A760A660A5A0A78
:1000E000760A5C0A6E0A760A760A760A640A5E0A5C
:1000F000760A760A760A760A760A760A760A600A16
:10010000760A380A760A760A6C0A760A760A740A39
:10011000760A760A760A760A760A760A760A760ADF
:10012000760A3A0A760A760A760A620A760A760A1F
:10013000760A760A760A760A760A760A760A760ABF
:100140003C0A760A3E0A400A760A760A760A420A8B
:10015000440A460A760A480A4A0A760A760A760A5B
:10016000720A4C0A760A500A4E0A520A760A760A2F
:10017000760A760A740A9C0AAA0AB60AB60A8E0A8F
:10018000B60AB60AB60AB60AB60AB60AB60AB60A6F
:10019000B60AB60AB60AB60AB60A900AB60A920AA9
:1001A000B60AB60AB60AB60AAE0AB60AC50AAC0A52
:1001B000B60AB60AB60AB60AB60AB60AB60AB60A3F
:1001C000B60AB60AB60AB60AB60A860AA20A940A95
:1001D000A60AB60A960AB60A9A0AB60AA40A980A9B
:1001E000A80A9E0AA00AB60AB60AB60AB60AB60A4B
:1001F000B60AB60A880A8A0A8C0AB00AB20AB60A8D
:10020000B60AB60AB40A940BB20BDA0BF40B020C62
:100210000E0C2E0C450C680C850C460D720DEB0D6A
:100220001D0E070E2E0E400E480E4E0E520E580E8C
:10023000B40EB60EB80EBA0EFA0EC20EC20EC20E32
:10024000BC0EBE0EC00E9114B814B015B814B01583
:1002500004152715B0157E158D15CE19CE19061A61
:10026000061A811A951C951C951CB51A951C5D1AC9
:100270005D1A4F1C951C641C821C007B4601020306
:10028000763A687F6577482B353B6978796439140D
:100290001E3C6A7A1D16041A1F3D6B061B070821B7
:1002A000203E6C2C19091715223F6D11050B0A1CF5
:1002B00023406E7E100D182425416F360E0C122738
:1002C00026427037380F33132D43717534322F2E79
:1002D00044727C7D28303174457351504A524D49E7
:1002E0002A5466594F5C5F4C4B4E62635A5D5E60A8
:1002F000295367585B56576147554842403E3C3A40
:100300003B456843413F3D2B357E697A790078143F
:100310001E7C6A7B1D16041A1F7F6B061B070821B3
:10032000204D6C2C19091715224A6D11050B0A1C5A
:10033000234C6E49100D182425516F360E0C1227D0
:10034000264F7037380F33132D52717534502F2EBE
:100350004E72397D283065314B735464586776018D
:100360002A773259745C5F66020362635A5D5E608D
:10037000295344575B565561474680291E1F20214B
:100380002223242526272D2E2A2B141A0815171C64
:10039000180C12132F302878041607090A0B0D0EBB
:1003A0000F33343579311D1B0619051110363738D6
:1003B0007D557A2C393A3B3C3D3E3F4041424353C8
:1003C000475F6061565C5D5E57595A5B62634648A1
:1003D000324445677B7F650301025250514F686983
:1003E0006A6B6C6D6E6F7071725800494C754A4D36
:1003F000734B4E767C777E7466547225303258206B
:1004000000623A25303458200065253032582000EB
:100410002146554C4C2120002146462120007725BD
:100420003032582000214353335F4630210A0021E7
:100430004353335F5245414459210A00214353320B
:100440005F45305F4630210A00214353325F46301A
:10045000210A00214353325F4530210A00214353D2
:10046000325F494E4954210A00214353315F4530E0
:100470005F25303258210A000A5B4F56525D20003A
:100480004C2575200053257520000A49443A253033
:10049000345828257325732920004D6F7573653AEC
:1004A000206E6F7420737570706F727465640A00CB
:1004B00052257520005725752000572575200057B7
:1004C00025752000582575200041257520004141E3
:1004D0002575200049257520005B4348475D2000B5
:1004E0000A5052543A25303258204953523A253056
:1004F000345820005B5253545D20000A4552523A52
:1005000025303258204953523A2530345820000AB9
:100510004B6579626F6172642073746172742E0A24
:10052000000A55534220636F6E6669677572656491
:100530002E0A000A0A544D4B3A33313633613131B9
:10054000612F4C5546410A0A003403490042004DD0
:100550000020005000430020006B0065007900621D
:10056000006F00610072006400200063006F006E85
:100570000076006500720074006500720000000ED5
:100580000374002E006D002E006B002E000000048E
:1005900003090409027400040100A03209040000E8
:1005A000010301010009211101000122400007059A
:1005B000810308000A090401000103000000092169
:1005C000110100012236000705820308000A090410
:1005D0000200020300000009211101000122220093
:1005E0000705830320000107050303200001090418
:1005F000030001030000000921110100012239005C
:10060000070584032000011201100100000008ED1D
:10061000FEEE1B01000102000105010906A1010512
:100620000719E029E71500250195087501810205E4
:100630000819012905950575019102950175039128
:10064000010507190029F71500250195F8750181A5
:1006500002C00631FF0974A1010975150026FF00CB
:100660009520750881020976150026FF00952075F2
:10067000089102C005010980A1018502160100262A
:1006800037001A81002AB700751095018100C00556
:100690000C0901A1018503160100269C021A010024
:1006A0002A9C02751095018100C005010906A1016F
:1006B000050719E029E71500250195087501810254
:1006C0009501750881010508190129059505750130
:1006D00091029501750391010507190029FF150085
:1006E00026FF00950675088100C0636F6E73756DF7
:1006F00065723A20253034580A0073797374656D39
:100700003A20253034580A000A002530325820009B
:100710006B6579626F6172643A20004C45443A20FF
:10072000253032580A0025583A2530386225730A98
:10073000000A202030313233343536370A00646500
:100740006C5F6B65795F6269743A2063616E2774D0
:100750002064656C3A20253032580A006164645F79
:100760006B65795F6269743A2063616E27742061FA
:1007700064643A20253032580A003F00433E20008E
:100780004C25640A000A092D20436F6E736F6C6557
:10079000202D0A4553432F713A09717569740A0077
:1007A0000A092D204D61676963202D0A643A0964A6
:1007B000656275670A783A096465627567206D61DC
:1007C000747269780A6B3A096465627567206B65B3
:1007D00079626F6172640A6D3A09646562756720B7
:1007E0006D6F7573650A763A0976657273696F6E17
:1007F0000A733A097374617475730A633A09636F13
:100800006E736F6C65206D6F64650A302D343A0924
:100810006C61796572302D34284631302D4634298B
:100820000A506175733A09626F6F746C6F61646529
:10083000720A6E3A094E4B524F0A003F004E4B521D
:100840004F3A206F66660A004E4B524F3A206F6E49
:100850000A0074696D65725F7265616433322829BC
:100860003A202530346C580A006B6579626F6172EA
:10087000645F6E6B726F3A2025580A006B6579626F
:100880006F6172645F69646C653A2025580A006B79
:100890006579626F6172645F70726F746F636F6CA1
:1008A0003A2025580A00686F73745F6B6579626F30
:1008B0006172645F6C65647328293A2025580A00C8
:1008C0000A092D20537461747573202D0A00474363
:1008D000433A20352E342E30204156522D4C494279
:1008E000433A20322E302E30204156525F4152433F
:1008F000483A2061767233350A004F5054494F4EC2
:10090000533A204C5546412045585452414B455985
:1009100020434F4E534F4C4520434F4D4D414E4485
:10092000204E4B524F204B45594D41505F5345434C
:1009300054494F4E20424F4F544C4F414445525F13
:1009400053495A450A004255494C443A20333136FE
:100950003361313161202832333A30313A3331203A
:100960004665622031322032303231290A00564940
:10097000443A2030784645454428742E6D2E6B2E1F
:1009800029205049443A203078316265652849422F
:100990004D205043206B6579626F61726420636FF4
:1009A0006E76657274657229205645523A20307809
:1009B000303030310A00444553433A20636F6E763D
:1009C0006572742049424D205043206B6579626FF7
:1009D00061726420746F205553420A000A092D2069
:1009E00056657273696F6E202D0A000A6D6F7573FC
:1009F000653A206F66660A000A6D6F7573653A2066
:100A00006F6E0A000A6B6579626F6172643A206FDB
:100A100066660A000A6B6579626F6172643A206FDC
:100A20006E0A000A6D61747269783A206F66660A10
:100A3000000A6D61747269783A206F6E0A000A6468
:100A4000656275673A206F6E0A000A6465627567B1
:100A50003A206F66660A000A0A626F6F746C6F61F3
:100A60006465722E2E2E2000433E200011241FBEEE
:100A7000CFEFD4E0DEBFCDBF04B603FE41C080910E
:100A8000AC039091AD03A091AE03B091AF0387305A
:100A9000904BA740B04BA1F51092AC031092AD0360
:100AA0001092AE031092AF0314BE0FB6F894A8953F
:100AB00080916000886180936000109260000FBE9A
:100AC0001092010810920008E3E0F0E089E08093C2
:100AD0005700E491E695E370E150E33040F4F0E034
:100AE000EE0FFF1FEE5AFE4F8081918102C080E021
:100AF00090E1E0E0F0E8E81BF90BF695E795099541
:100B000011E0A0E0B1E0E2E9FCE402C005900D9242
:100B1000A835B107D9F723E0A8E5B1E001C01D92DF
:100B2000AC3AB207E1F70E94B0110C9447260C943E
:100B30000000FF93EF93E0915801F0915901309735
:100B400009F00995EF91FF910895FC01859180309E
:100B500011F0EFDFFBCF0895FF27E0E230E247FF1F
:100B60000CC0419597FF09C0EDE2609570958095A6
:100B70009095611D711D811D911D27FF02C021955A
:100B800030E350E2AA27660F771F881F991FAA1F1C
:100B9000A41710F0A41B63955A95A9F7AA3008F082
:100BA000A95FA05DAF93F39561157105810591056E
:100BB00041F7ED3211F4EF93F395F21718F43F93E8
:100BC000F395FBCF8F91B5DFFA95E1F70895E991A1
:100BD000F9918591803021F0853219F0AADFF9CFA3
:100BE000089520E0E89455915532C1F3503311F443
:100BF000689455915A3348F4505390F3220F022EC3
:100C0000220F220F200D250FF4CF0EF4219589918C
:100C10009991533619F3533729F1533559F1BC01E2
:100C200088279927E8945C3621F4899199916894F2
:100C30005591543639F446EF7EF077FF0DC08FEFB3
:100C40009FEF0AC055374AE039F0583540E121F0AE
:100C5000523642E009F00895FF93EF937DDFEF9164
:100C6000FF91B7CFFF93EF93FC0181918030B9F3EF
:100C700060DFFBCFFF93EF9368DFF1CFDF93CF937C
:100C8000CDB7DEB72596A3DFCF91DF910895909180
:100C90006501923081F09330D1F0913031F5E72F3A
:100CA000F0E0B3E0EE0FFF1FBA95E1F7E60FF11D9C
:100CB000E658FC4F17C0E72FF0E0A3E0EE0FFF1F50
:100CC000AA95E1F7E60FF11DE650FD4F0BC0E72FA7
:100CD000F0E073E0EE0FFF1F7A95E1F7E60FF11DEC
:100CE000E658FD4FE491E03819F480E090E0089573
:100CF00090E023E0880F991F2A95E1F72E2F2077A7
:100D000030E044E0359527954A95E1F7820F931F2F
:100D100054E0880F991F5A95E1F7EF709C012E0F50
:100D2000311DF901EE0FFF1FE050F84985919491B4
:100D300008955998519A08955198599A0895589834
:100D4000509A08955098589A08955198599A85E064
:100D50008A95F1F7000089B18695817008955098C1
:100D6000589A85E08A95F1F7000089B1817008955D
:100D7000CF93DF93EC010E94A506882341F02097D2
:100D800031F085E08A95F1F700002197F4CFCE018C
:100D9000DF91CF910895CF93DF93C2E3D0E00E941B
:100DA000A506811108C0209731F085E08A95F1F7FA
:100DB00000002197F4CFCE01DF91CF9108952E98B6
:100DC00026982F9827980E9499060E94A206E9E685
:100DD000F0E0808188608083E9980895E19AE99A3B
:100DE0000E949C060C94A206E9980E9499060C9415
:100DF000A206CF93DF932FB7F894C0910201D09150
:100E00000301CE01882781159F4F19F080E09FEFE5
:100E100002C08FEF90E08C2B9D2B90930301809369
:100E200002012FBFCE0199278F3F910581F5CD2F6C
:100E3000DD27C03FD10551F0CF3FD10509F451C0A6
:100E400080919903C034D10599F407C0809199032A
:100E500080FF33C088E194E004C080FF2EC080E1B1
:100E600094E09F938F930E943E060F900F9025C0B1
:100E700080FF37C0DF93CF9389E094E09F938F93F7
:100E80000E943E060F900F900F900F902AC0CE0147
:100E90008F6F019699F08091990380FF0CC0DF93CA
:100EA000CF9381E094E09F938F930E943E060F9032
:100EB0000F900F900F90CD2F01C0CFEF809199032D
:100EC00080FF0CC01F92CF938AEF93E09F938F9384
:100ED0000E943E060F900F900F900F908C2F90E085
:100EE00002C08FEF9FEFDF91CF910895CF93CBEFAB
:100EF000C15069F00E94F9068F3F2FEF920749F425
:100F00008FE99FE00197F1F700C00000F1CF8FEF6C
:100F10009FEFCF91089510925E0110925D011092A3
:100F20005C0110925B0180E090E890930101809356
:100F300000018FEF9FEF90930301809302010895CA
:100F4000EF92FF920F931F93CF93DF93082F10928E
:100F50005B018091990380FF0CC01F920F938EE17B
:100F600094E09F938F930E943E060F900F900F90F6
:100F70000F90E9980E9499060E94A2068FE891E0DE
:100F80000197F1F700C000000E949F068FE891E0F2
:100F90000197F1F700C000000E949C0680E69AEEDF
:100FA0000E94B806892B11F481E084C0C0E0D0E033
:100FB000FF24F39410E0EE24E39490E59A95F1F782
:100FC000C8010C2E02C0959587950A94E2F780FF20
:100FD00004C0FE240E94A20602C00E949F060E9436
:100FE000CB06892B11F482E065C082E390E00E9479
:100FF000B806892B11F483E05DC02196C830D10575
:10100000E1F680E58A95F1F7FF2019F00E94A2062B
:1010100002C00E949F060E94CB06892B11F484E037
:1010200049C082E390E00E94B806892B11F485E064
:1010300041C090E59A95F1F70E94A2060E94CB0666
:10104000892B11F486E036C080915C01813109F46E
:1010500040C082E390E00E94B806892B19F0C2E3F9
:10106000D0E009C087E026C0209759F025E02A95F6
:10107000F1F7000021970E94AF068111F5CFCD2B2B
:1010800011F488E017C00E94CB06892B19F0C2E347
:10109000D0E009C089E00EC0209759F085E08A951C
:1010A000F1F7000021970E94AF068823A9F3CD2B0A
:1010B00081F48AE080935B0180915B018061809381
:1010C0005B0180915C0181111AC080915B018730C6
:1010D000B1F48FEF9FEF90930301809302010E9480
:1010E0008B070E949C060E94A206E19AE99ADF9172
:1010F000CF911F910F91FF90EF900C9476070E9473
:1011000099060E94A2068FE39FE10197F1F700C0C4
:1011100000000E949C060E94A206E19AE99A8FEFC5
:101120009FEFDF91CF911F910F91FF90EF90089566
:101130001F920F920FB60F9211242F933F934F934C
:101140005F938F939F9329B180919A0340910001FF
:10115000509101014115504819F480935A010FC074
:1011600090915A01891B833050F080910001909139
:10117000010190935E0180935D0180E2DDC080916A
:1011800000019091010196958795909301018093BC
:10119000000120FF09C08091000190910101906839
:1011A00090930101809300018091000190910101D1
:1011B00099278038910509F4F9C0A8F48032910587
:1011C00009F4F4C038F4009709F4F0C0409709F42A
:1011D00089C0A9C08034910509F4E8C08035910523
:1011E00009F480C0A0C0803C910539F150F48039E9
:1011F000910509F477C0803A910509F094C084E61E
:101200004DC0803D910509F46DC0803E910509F007
:101210008AC0809100019091010190935E018093BA
:101220005D018091000190910101892F9927909390
:1012300001018093000183E252C084E649990FC006
:10124000882369F095E09A95F1F700008150F6CF78
:10125000882349F095E09A95F1F70000815049996B
:10126000F7CF8111A3C0809100019091010190936B
:101270005E0180935D018091000190910101892FB1
:101280009927909301018093000182E228C088236E
:1012900079F095E09A95F1F700008150499BF7CFDE
:1012A00007C0882349F095E09A95F1F70000815036
:1012B0004999F7CF81117AC0809100019091010185
:1012C00090935E0180935D018091000190910101F6
:1012D000892F9927909301018093000181E28093E7
:1012E0005C0133C0809100019091010190935E01F7
:1012F00080935D01809100019091010197FF02C0F0
:1013000080E101C081E180935C01809100019091B6
:10131000010146E0969587954A95E1F79093010182
:101320008093000112C0809100019091010190937F
:101330005E0180935D0180E880935B0180915B0199
:1013400090E0982F88278F6F27C08091000190919F
:10135000010199278F3F910511F480EFEDCF809126
:1013600003018F3F31F0809102018F3F11F080E443
:10137000E3CF8091020190910301982F88279093E9
:1013800003018093020120910001309101018091BD
:10139000020190910301822B90930301809302013B
:1013A00080E090E890930101809300019F918F91DC
:1013B0005F914F913F912F910F900FBE0F901F9013
:1013C0001895CF93C82F8DEE0E94A0078A3F9105F4
:1013D00021F48C2FCF910C94A007CF910895E82F82
:1013E000E695E695E695EF70F0E0E759FE4F40810F
:1013F000282F277081E090E002C0880F991F2A955E
:10140000E2F7242F30E028233923232B11F4842BF7
:1014100080830895E82FE695E695E695EF70F0E075
:10142000E759FE4F2081382F377081E090E002C0ED
:10143000880F991F3A95E2F7422F50E0482359232D
:10144000452B19F08095822380830895482F50E022
:10145000FA013397E138F10508F048C0E65CFF4F28
:101460000C94412687E108958FE108958CE5089555
:1014700080E6089582E6089587E2089583E5089559
:101480008FE2089589E3089587E308958FE308952F
:1014900087E408958FE4089586E508958EE508951C
:1014A0008FE7089580E0089585E608958EE6089513
:1014B0008FE6089580E3089588E3089580E4089511
:1014C00088E4089580E5089587E508958FE50895F7
:1014D00088E1089588E0089580E2089580E1089504
:1014E00089E108958DE6089588E208958F7708953B
:1014F0008FE00895CF93482F50E0FA017C97E834AD
:10150000F105A0F5E554FF4F0C94412685E53EC05A
:101510008AE53CC08BE53AC08CE538C08DE536C025
:101520008EE534C08FE532C080E630C081E62EC043
:1015300082E62CC083E62AC08FE628C081E726C059
:1015400082E724C084E722C085E720C087E71EC069
:1015500088E71CC08AE71AC08CE718C08FE716C05E
:1015600080E714C089E712C08BE710C0C82F1F9214
:101570008F9389E694E09F938F930E943E060F908D
:101580000F900F900F908C2F01C084E5CF9108959C
:101590000F931F93CF93DF930E940C248C010E9422
:1015A000F906EC01019631F4C8010E942424843F1D
:1015B0009140A8F3CE01DF91CF911F910F91089533
:1015C0000E94DF060C94EE0680919903816080935F
:1015D0009903E9E6F1E0119281E0E937F807D9F7DC
:1015E0000895E82FF0E0E759FE4F80810895E9E67D
:1015F000F1E0119281E0E937F807D9F70895982FC3
:1016000080916501823048F092FB882780F990FD37
:10161000826091FD84600C94E1090895CF93DF937B
:1016200080915B01882371F180915D0190915E0151
:1016300020915B019F938F931F922F938BEF94E0E8
:101640009F938F930E943E0680915B0180750F905F
:101650000F900F900F900F900F9071F48091640194
:101660008B3051F484EF94E09F938F930E943E0659
:10167000109264010F900F9010925B0110925E0126
:1016800010925D0180915C01882309F440C0909123
:101690005C01809168019817D1F180915D01909172
:1016A0005E0120915C019F938F931F922F9380EE98
:1016B00094E09F938F930E943E06809168010F9063
:1016C0000F900F900F900F900F9085FF04C0909196
:1016D0005C0194FD06C084FF12C080915C0185FF0F
:1016E0000EC0809164018B3051F489ED94E09F939A
:1016F0008F930E943E06109264010F900F9080918C
:101700005C018093680110925E0110925D01E0918E
:1017100064018E2F90E08C30910508F06FC3FC01BE
:10172000ED5FFE4F0C9441260E940C249F938F93F3
:1017300084ED94E09F938F930E943E061092650182
:101740001092670110926601109268010E94F70AD8
:101750000E947E190E940C24909363018093620181
:1017600081E075C00E94F9068A3A9105B9F40E9499
:101770000C249F938F938EEC94E09F938F930E9401
:101780003E060E940C24909363018093620187E0DF
:10179000809364010F900F900F900F9080916201E1
:1017A000909163010E942424893B9B4008F426C346
:1017B00082E015C00E940C249F938F9389EC94E0E3
:1017C0009F938F930E943E068FEF0E94A0070F9079
:1017D0000F900F900F908A3F910521F486E080933F
:1017E00064010CC383E0FBCF0E94F4062E98269A76
:1017F0002F98279A0E940C24909363018093620192
:1018000084E0EDCF80916201909163010E942424D5
:10181000853F914008F4F2C285E0E1CF2E982698EA
:101820002F9827980E948B070E94EE060E940C2496
:101830009F938F9384EC94E09F938F930E943E0636
:101840000E940C24909363018093620186E0809350
:1018500064010F900F900F900F90D0C20E94F90674
:10186000019609F4CBC20E940C249F938F938FEBB7
:1018700094E09F938F930E943E060E940C249093C5
:1018800063018093620187E0E2CF809162019091D1
:1018900063010E942424853F914018F089E08093E1
:1018A00064010E94F906019609F4A8C20E940C2462
:1018B0009F938F938AEB94E09F938F930E943E06B1
:1018C0000E940C24909363018093620188E0BFCF53
:1018D00080916201909163010E942424853F914090
:1018E00018F089E0809364010E94F906019609F4DA
:1018F00085C20E940C249F938F9385EB94E09F9365
:101900008F930E943E0689E0A2CF82EF0E94A0073B
:101910008F3F3FEF930789F08A3F910589F40E943A
:10192000C80A8F3F2FEF920771F0D82FCC270E9463
:10193000C80A9E01282BC90108C08FEF9FEF05C080
:101940008EEF9FEF02C080E090E09093670180935C
:10195000660180915C01813131F48DEF9FEF9093AE
:101960006701809366010E940C249F938F9380EB04
:1019700094E09F938F930E943E0680916601909120
:1019800067010F900F900F900F90009711F482E075
:101990002DC08F3F3FEF930711F481E027C09C01DA
:1019A0002D5F3F4F2230310590F38F3F910559F461
:1019B0008AE994E09F938F930E943E0610926501FE
:1019C0000F900F901FC09C0125583B4A22303105D3
:1019D00080F480EF0E94A0078A3F9105C1F683E062
:1019E0000E94A0078A3F910591F683E080936501EC
:1019F00009C0803B2FEB9207C1F3882781159F4BCD
:101A0000A1F3C5CF80916601909167018E3F2FEFC2
:101A1000920749F08D3F3FEF930741F0009749F05F
:101A20004DE151E008C04EE151E005C048E151E010
:101A300002C044E251E020916501213039F02230AA
:101A400041F0233049F020E331E008C02DE231E0DD
:101A500005C02AE231E002C025E331E05F934F93F5
:101A60003F932F939F938F938AE894E09F938F9354
:101A70000E943E068AE0809364018DB79EB7089667
:101A80000FB6F8949EBF0FBE8DBFB8C10E940C2444
:101A90009F938F9385E894E09F938F930E943E06D7
:101AA0000F900F900F900F9080916501823029F078
:101AB000833039F488EF0E94A0070E94F6160E9436
:101AC000FF0A8BE0809364010E940C249F938F9304
:101AD00080E894E09F938F930E943E060F900F90B2
:101AE0000F900F900E94F9069C012F3F9FEF39073E
:101AF00009F484C12115310519F02F3F310569F42E
:101B00000E94F70A0E947E1988E794E09F938F93C2
:101B10000E943E060F900F9071C190916501923026
:101B200009F44CC0933009F4CBC0913009F066C180
:101B300090916101923099F028F4992341F091300D
:101B4000C1F039C0933061F1943081F134C0803EEE
:101B500021F0813E51F482E005C081E003C08D3167
:101B6000D9F483E08093610149C187FFE3C08F7797
:101B70000DC1863301F118F48A3229F41CC08A3A67
:101B8000D1F0863BC1F087FD03C00E947A0A0BC0EA
:101B90008F770E947A0A0DC08D3969F484E0E2CF14
:101BA000853449F485E50E94EF0905C0853C19F4A8
:101BB00085E50E940A0A1092610120C1E09160014E
:101BC0004E2F50E04930510508F077C0FA01E15F2F
:101BD000FE4F0C944126803E69F030F4833871F05A
:101BE000843871F48FE757C0813E31F0803F41F473
:101BF00081E05BC082E059C084E057C082E04BC006
:101C000087FF98C00E94F70A8DE594E098C0893557
:101C100009F453C0803F19F0823119F44EC083E0BB
:101C200044C01092600187FD03C00E94260A82C052
:101C30000E94F70A83E594E082C0833821F084385B
:101C400021F48FE738C082E036C01092600187FF30
:101C50009DC00E94F70A89E494E071C0109260016F
:101C6000823109F4CBC0893509F4C8C087FD03C0AF
:101C70000E94260A8BC00E94F70A8CE394E05FC0A2
:101C8000843121F0803FC9F486E00FC085E00DC0AB
:101C9000873799F480E00E94EF090FC0843169F41E
:101CA00087E003C0803F49F488E080936001A6C0CC
:101CB000873719F480E00E940A0A109260019EC0E2
:101CC00090915F01913009F443C038F0923009F4EB
:101CD00063C0933009F47FC091C0863809F168F47D
:101CE0008338D1F020F4803819F582E06CC0843854
:101CF000A9F08538E9F48BE01DC08C38A9F030F4E8
:101D0000873881F08B38A1F481E014C08D3871F0F0
:101D1000803F71F481E057C082E00CC08FE70AC0B9
:101D200086E008C080E006C089E004C08AE002C006
:101D300087FD03C00E94EF0961C08FE294E09F938A
:101D40008F930E943E060F900F901092640156C030
:101D5000482F50E0FA01E358F109EB30F10590F417
:101D6000E85EFE4F0C94412682E045C08FE743C0F9
:101D70008BE041C086E03FC081E03DC089E03BC0D0
:101D80008AE039C010925F0187FD03C00E940A0AF1
:101D900035C085E294E0D3CF853279F030F48631D6
:101DA00071F08E3199F480E00BC0863221F0803FD3
:101DB00069F483E008C08DE503C083E501C081E5D7
:101DC0000E94EF0905C080935F0118C00E94F70AC6
:101DD00010925F0113C08E3169F020F48631B1F7A3
:101DE00081E509C0853221F0863281F78DE503C097
:101DF00083E501C080E00E940A0AEACF81E0DF911A
:101E0000CF91089580919D0208950895CF93DF9317
:101E100000D01F92CDB7DEB72091A303243021F567
:101E200023E029839B838A8382E08093E9008FEFFC
:101E30009091E800815095FD06C095ED9A95F1F7D7
:101E400000008111F5CF8091E80085FF0DC040E0D2
:101E500050E063E070E0CE0101960E946213809131
:101E6000E8008E778093E8000F900F900F90DF913D
:101E7000CF910895CF93DF9300D01F92CDB7DEB7F7
:101E80002091A303243029F522E029838058910969
:101E90009B838A832093E9008FEF9091E800815023
:101EA00095FD06C095ED9A95F1F700008111F5CFEB
:101EB0008091E80085FF0DC040E050E063E070E0F5
:101EC000CE0101960E9462138091E8008E77809384
:101ED000E8000F900F900F90DF91CF910895CF936E
:101EE000DF93EC019091A303943009F048C08091F6
:101EF00014018823D9F0809115018823B9F09093BB
:101F0000E90081E8815049F09091E80095FD05C015
:101F10009AE29A95F1F700C0F5CF8091E80085FF2D
:101F20002EC040E050E060E270E019C081E0809394
:101F3000E90081E8815059F09091E80095FD07C0D3
:101F4000EFE3F1E03197F1F700C00000F3CF8091AB
:101F5000E80085FF14C040E050E068E070E0CE018A
:101F60000E9462138091E8008E778093E80080E2FF
:101F7000FE01ADE7B2E001900D928A95E1F7DF91A5
:101F8000CF910895CF93C0917B01C1110BC00E94E6
:101F90001824643C79408105910520F081E080930C
:101FA0007B01C1E08C2FCF910895FF920F931F9377
:101FB000CF93DF93D82F0FB607FE83C08091A30382
:101FC000843081F08091070190E001962091090111
:101FD00030E0822393232091080130E08217930799
:101FE00009F0C9C00E94C20F811110C08091070181
:101FF00090E001962091090130E082239323209103
:10200000080130E08217930709F0B5C00E940C2444
:102010008C01C091E900CF709091EC00892F817004
:1020200090FD80E8C82B83E08093E90085E0F82EDE
:102030008091EB0085FD42C08091EB0080FF3EC0A7
:102040008091EE0087FF3AC08091080190910701CE
:10205000981709F457C09091E80095FF8AC0E09165
:102060000501F0910601E80FF11D20818F5F90912D
:1020700009018923809308012093F1008091E800F1
:1020800085FDE2CF8091E80080FFDECF8091E800FF
:102090008E778093E800F0920401D6CF80910701FB
:1020A00090E001962091090130E082239323209152
:1020B000080130E08217930709F448C0CF70C0933D
:1020C000E90040910701842F90E0019620910901D9
:1020D00030E0822393232091080130E08217930798
:1020E00009F44CC0E0910501F0910601E40FF11DE7
:1020F000D083809107018F5F90910901892380939C
:1021000007013CC08091E80085FF33C0D093F10007
:1021100081E09091F200992391F09091E80090FF76
:102120000EC09091E80095FF03C01092F100F9CF26
:102130009091E8009E779093E800F0920401882344
:1021400009F4ACCFCF70C093E90018C080910401AE
:10215000882309F4B3CF0E940C249C0180179107B7
:1021600011F4890165CF909104019150909304017D
:10217000F8CF80E0CECF40910701B4CF80E0DF916F
:10218000CF911F910F91FF900895089542E061EC67
:1021900081E00E94DB1242E061EC82E00E94DB12EF
:1021A00042E261EC83E00E94DB1242E261EC84E0F7
:1021B0000C94DB128091A503833009F455C030F4F0
:1021C000813071F0823009F48EC008958A3009F4AC
:1021D0007AC08B3009F460C0893009F09CC020C0FF
:1021E0008091A403813A09F096C08091E800877F2E
:1021F0008093E8008091A8039091A903892B21F492
:1022000060E28DE792E003C060E080E090E070E083
:102210000E94AF138091E8008B778093E8000895C7
:102220008091A403813209F076C08091A803909137
:10223000A903009719F0039709F06DC08091E80099
:10224000877F8093E8008091E80082FD05C080913F
:10225000A3038111F8CF5FC08091F10080939D02AC
:102260008091E8008B7753C08091A403813A09F0F4
:1022700052C08091A8039091A903892B09F04BC00B
:102280008091E800877F8093E8008091E80080FFDC
:10229000FCCF8091140136C08091A4038132D9F51E
:1022A0008091A8039091A903892BA9F58091E8005A
:1022B000877F8093E8000E9410138091A60380938B
:1022C00014010C947E198091A403813221F5809130
:1022D000E800877F8093E8000E9410138091A70395
:1022E00080939E0208958091A403813AA1F4809185
:1022F000E800877F8093E8008091E80080FFFCCFB2
:1023000080919E028093F1008091E8008E77809307
:10231000E8000C941013089580919D0280937C0135
:1023200010929D020E94F70A0C947E190C948C1155
:102330000E94B9238091A103882329F00E94C6231B
:1023400081110C94C51208950E94DA2380917C01BA
:1023500080939D0208950C94A41108950C94AD11DE
:10236000CF9384B7877F84BF0FB6F894A8958091E8
:102370006000886180936000109260000FBE90E062
:1023800080E80FB6F89480936100909361000FBECF
:1023900085ED9FE00E948C238AE091E00E94F11677
:1023A00083E395E00E94A5050E94E00A0E94A5171C
:1023B0000E94C8150E941B1678940E94A71780914E
:1023C000A303843029F00E94D6160E94AD11F7CFE6
:1023D00081E295E00E94A5050E94AE118FE095E094
:1023E0000E94A505C3E08091A303853019F40E94E3
:1023F0009811F9CF0E94AB172091E4003091E500CD
:102400008091790190917A012817390709F464C005
:102410008091E4009091E50090937A018093790196
:102420000E94C20F882309F457C08091A30384300F
:1024300009F052C08091E9008F702091EC00922F3A
:10244000917020FD90E8892BC093E9009091EB00FA
:1024500090FF3FC09091EE0097FF3BC09091080124
:1024600020910701291709F12091E80025FF1DC0DF
:10247000E0910501F0910601E90FF11D30819F5FA8
:10248000209109019223909308013093F1009091DB
:10249000E80095FDE3CF9091E80090FFDFCF9091A9
:1024A000E8009E779093E800D9CF9091F2009923AD
:1024B00081F09091E80090FF0CC09091E80095FFAA
:1024C00003C01092F100F9CF9091E8009E779093AD
:1024D000E8008F708093E9000E94D61684CF292FE0
:1024E000332723303105C9F060F42130310581F004
:1024F0002230310509F041C084E790E023E935E05E
:1025000040C021323105E1F02232310531F135C0D0
:1025100082E190E027E036E034C0992781309105D0
:1025200049F028F0029749F5E9E4F5E005C0EFE845
:10253000F5E002C0EFE7F5E0849190E09F0121C053
:1025400064307105D0F4660F771FFB01E65BFE4F28
:102550002081318189E090E014C06430710568F415
:10256000FB01EE0FFF1FEE5BFE4F20813181FB016F
:10257000E25CFE4F808190E004C080E090E020E0CB
:1025800030E0FA0131832083089584E089BD86E03C
:1025900089BD09B400FEFDCF8091D8008F7D809366
:1025A000D8008091E00082608093E0008091E0009C
:1025B00081FDFCCF0895982F953068F59093E90040
:1025C000981739F07091EC002091ED005091F000D7
:1025D00003C0242F762F50E021FD02C09F5FECCF77
:1025E0003091EB003E7F3093EB003091ED003D7F6A
:1025F0003093ED003091EB0031603093EB0070933D
:10260000EC002093ED005093F0002091EE0027FDA8
:10261000E5CF80E008958F708093E90081E0089510
:102620008091A40387FF11C08091E80082FD05C05E
:102630008091A3038111F8CF11C08091E8008B77BE
:102640000BC08091A303882349F08091E80080FFAC
:10265000F8CF8091E8008E778093E800089520916C
:10266000E4003091E50095E64091EC00842F817004
:1026700040FF23C08091E80080FD1DC08091A3032E
:10268000882399F0853099F08091EB0085FD11C089
:102690004091E4005091E5002417350729F391504B
:1026A00011F09A01E1CF84E0089582E0089583E07B
:1026B000089581E0089580E008954091E80042FF88
:1026C000DDCF0895CF92DF92EF92FF920F931F9389
:1026D000CF93DF93EC018B017A010E942F138111BC
:1026E00035C0E114F10439F0F70180819181081BB4
:1026F000190BC80FD91FC12CD12C0115110529F1B7
:102700008091E80085FD18C08091E8008E77809365
:10271000E8000E94D616E114F10449F0F701808127
:102720009181C80ED91ED182C08285E00FC00E945F
:102730002F13882311F30AC089918093F10001506F
:102740001109FFEFCF1ADF0AD8CF80E0DF91CF91D8
:102750001F910F91FF90EF90DF90CF9008952091FF
:10276000AA033091AB032617370748F061157105AE
:1027700039F42091E8002E772093E80001C0B901D8
:10278000FC0120E06115710561F18091A3038823AC
:10279000D9F18530D9F18091E80083FD39C080916D
:1027A000E80082FD2BC08091E80080FFEBCF809194
:1027B000F20090E06115710551F08830910538F410
:1027C00021912093F100615071090196F3CF21E02E
:1027D000089709F020E08091E8008E778093E80068
:1027E000D1CF2111D2CF0AC08091A303882361F0F9
:1027F000853061F08091E80083FD0AC08091E80097
:1028000082FFF2CF80E0089582E0089583E008958A
:1028100081E008952091AA033091AB032617370772
:1028200048F06115710539F42091E8002E77209366
:10283000E80001C0B901FC0120E06115710579F1E2
:102840008091A303882309F43DC0853009F43CC07E
:102850008091E80083FD3AC08091E80082FD2CC0A1
:102860008091E80080FFE9CF8091F20090E061154F
:10287000710559F08830910540F424912093F100BE
:102880003196615071090196F2CF21E0089709F065
:1028900020E08091E8008E778093E800CECF211170
:1028A000CFCF0AC08091A303882361F0853061F007
:1028B0008091E80083FD0AC08091E80082FFF2CF9A
:1028C00080E0089582E0089583E0089581E008950E
:1028D0001F93CF93DF93CDB7DEB7AA970FB6F894C7
:1028E000DEBF0FBECDBFE4EAF3E08091F10081933B
:1028F00023E0EC3AF207C9F70E94DA108091E80071
:1029000083FF2EC18091A4039091A503492F50E02D
:102910004A30510508F024C1FA01ED5DFE4F0C94D8
:102920004126803821F0823809F01AC108C0809110
:10293000A0039091A103992389F082600FC0809138
:10294000A8038F70853008F00BC18093E900809157
:10295000EB0085FB882780F91092E9009091E80050
:10296000977F9093E8008093F1001092F100D1C01E
:10297000282F2D7F09F0F4C0882319F0823061F0F0
:10298000EFC08091A603813009F0EAC0933009F0CE
:1029900080E08093A1032EC08091A60381112AC0FC
:1029A0008091A8038F702FEF280F243008F0D8C033
:1029B0008093E9002091EB0020FF1CC0933021F4AC
:1029C0008091EB00806214C09091EB009061909335
:1029D000EB0021E030E0A90102C0440F551F8A95A9
:1029E000E2F74093EA001092EA008091EB008860E1
:1029F0008093EB001092E9008091E800877F80933C
:102A0000E8000E941013ACC08111AAC01091A60367
:102A10001F778091E3008078812B8093E300809181
:102A2000E800877F8093E8000E9410138091E800FF
:102A300080FFFCCF8091E30080688093E300111158
:102A400002C082E001C083E08093A30389C0805864
:102A5000823008F085C08091A6039091A7038C3D39
:102A600053E0950779F583E08A838AE289834FB73B
:102A7000F894DE01139620E03EE051E2E32FF0E00F
:102A800050935700E49120FF03C0E295EF703F5F41
:102A9000EF708E2F90E0EA3010F0C79601C0C0961C
:102AA0008D939D932F5F243149F74FBF8091E800AC
:102AB000877F8093E8006AE270E0CE0101960E9471
:102AC000AF1316C06091A8037091A903AE014F5FC8
:102AD0005F4F0E946F12BC01892B09F441C0909195
:102AE000E800977F9093E80089819A810E940A14F8
:102AF0008091E8008B778093E80032C0803881F5C0
:102B00008091E800877F8093E80080919F03809305
:102B1000F1008091E8008E7772CF811121C0809101
:102B2000A6039091A70399270297D4F48091E80017
:102B3000877F8093E8008091A60380939F030E9483
:102B4000101380919F03811106C08091E30087FDDF
:102B500002C081E001C084E08093A3030E94C610FC
:102B60008091E80083FF0AC08091E800877F80930E
:102B7000E8008091EB0080628093EB00AA960FB68C
:102B8000F894DEBF0FBECDBFDF91CF911F910895A6
:102B90000E9425160E942816E0EEF0E080818160F8
:102BA0008083E8EDF0E080818F77808319BCE3E6D5
:102BB000F0E08081816080831092A20308950E94DA
:102BC00025160E9428168091D8008F778093D80010
:102BD0008091D80080688093D8008091D8008F7D44
:102BE0008093D80084E089BD86E089BD09B400FEE9
:102BF000FDCF1092A30310929F031092A103109295
:102C0000A00342E060E080E00E94DB128091E100DE
:102C10008E7F8093E1008091E20081608093E200EA
:102C20008091E20088608093E2008091E0008E7FD6
:102C30008093E0000895E3E6F0E080818E7F80835A
:102C400081E08093A2030C94DF151092E2000895B6
:102C50001092E10008951F920F920FB60F92112467
:102C60002F933F934F935F936F937F938F939F9394
:102C7000AF93BF93EF93FF938091E10082FF0BC06E
:102C80008091E20082FF07C08091E1008B7F8093FA
:102C9000E1000E94D5168091E10080FF19C080916B
:102CA000E20080FF15C08091E2008E7F8093E200F9
:102CB0008091E20080618093E2008091D800806280
:102CC0008093D80019BC85E08093A3030E949611DD
:102CD0008091E10084FF30C08091E20084FF2CC02D
:102CE00084E089BD86E089BD09B400FEFDCF8091F6
:102CF000D8008F7D8093D8008091E1008F7E8093F3
:102D0000E1008091E2008F7E8093E2008091E200FA
:102D100081608093E20080919F03882311F084E01A
:102D200007C08091E30087FD02C081E001C083E01D
:102D30008093A3030E94AB118091E10083FF24C024
:102D40008091E20083FF20C08091E100877F809323
:102D5000E10082E08093A30310929F038091E10041
:102D60008E7F8093E1008091E2008E7F8093E2006D
:102D70008091E20080618093E20042E060E080E0C8
:102D80000E94DB120E94C510FF91EF91BF91AF919D
:102D90009F918F917F916F915F914F913F912F9173
:102DA0000F900FBE0F901F9018950895CF938091AC
:102DB000A3038823A1F0C091E900CF709091EC00AB
:102DC000892F817090FD80E8C82B1092E9008091D6
:102DD000E80083FD0E946814CF70C093E900CF9192
:102DE00008959093A4028093A3020895E091A30212
:102DF000F091A402309721F00190F081E02D099428
:102E000080E00895EF92FF920F931F93CF93DF938B
:102E1000E091A302F091A4023097B1F18C010280FD
:102E2000F381E02D09958091990382FF2DC080FFE9
:102E300004C080E197E00E94A505E80110E28AE065
:102E4000E82E87E0F82E8091990380FF0BC08881DF
:102E50001F928F93FF92EF920E943E060F900F9069
:102E60000F900F90115021961111EDCF8091990381
:102E700080FF0AC088E097E0DF91CF911F910F910A
:102E8000FF90EF900C94A505DF91CF911F910F91CA
:102E9000FF90EF900895CF93DF932091A10230919E
:102EA000A2022817390709F19093A2028093A10288
:102EB000E091A302F091A4023097B9F0EC010680F2
:102EC000F781E02D09958091990382FF0EC080FF64
:102ED0000CC0DF93CF938AEF96E09F938F930E946D
:102EE0003E060F900F900F900F90DF91CF910895B5
:102EF000CF93DF9320919F023091A00228173907CA
:102F000009F19093A00280939F02E091A302F091B7
:102F1000A4023097B9F0EC010084F185E02D099509
:102F20008091990382FF0EC080FF0CC0DF93CF9386
:102F30008AEE96E09F938F930E943E060F900F902B
:102F40000F900F90DF91CF9108950C944E180E942E
:102F500003240C94E40ABF92CF92DF92EF92FF9287
:102F60000F931F93CF93DF9300D000D01F92CDB764
:102F7000DEB70E940E0B06EA12E0F12C8F2D0E94A4
:102F8000F10AB82EF801C080C82639F4F3940F5F17
:102F90001F4FF0E1FF12F2CF30C08091990381FD05
:102FA0000E944F18D12CEE24E3948C2D8E21F9F041
:102FB000D982FA8291E08B2D8E2109F490E09B83D7
:102FC0000E940C248160782F9D838C8349815A81D3
:102FD0006B818D810E94851849815A816B817C812A
:102FE0008D810E94A423F80180818E258083D39453
:102FF000EE0CF8E0DF12D9CFC9CF8FEF89838A8337
:103000001B820E940C248160782F9D838C834981D0
:103010005A816B818D810E9485180E94A3230E9492
:10302000F6169091A502891741F10E94F616809339
:10303000A5029091990392FF0EC090FF0CC01F92C1
:103040008F938BE197E09F938F930E943E060F90A2
:103050000F900F900F908091A5020F900F900F90FE
:103060000F900F90DF91CF911F910F91FF90EF90F4
:10307000DF90CF90BF900C94B5230F900F900F90DE
:103080000F900F90DF91CF911F910F91FF90EF90D4
:10309000DF90CF90BF9008950C94FF0A0895EF92AF
:1030A000FF920F931F93CF93DF9381E397E00E94EA
:1030B000A505C0E0D0E08DE1E82E81E0F82E06E223
:1030C00017E08C2F0E94F10A0E949123FF92EF9249
:1030D0001F928F93DF93CF931F930F930E943E060F
:1030E00021968DB79EB708960FB6F8949EBF0FBE77
:1030F0008DBFC031D10529F7DF91CF911F910F917D
:10310000FF90EF90089508950895CF93DF93CDB782
:10311000DEB72B970FB6F894DEBF0FBECDBF942F4E
:103120004F83252F588769877A878B874A855B85E8
:10313000452B31F02F3F31F481E09F3F19F403C05C
:1031400081E001C080E080FD07C04F81588569851E
:103150007A858B850E94A423DE01119686E0FD010D
:1031600011928A95E9F785E0FE01379601900D925C
:103170008A95E1F749815A816B817C818D819E819D
:103180000E94931F2B960FB6F894DEBF0FBECDBFE3
:10319000DF91CF910895CF93882309F465C0C82F9C
:1031A0008CEF8C0F813A20F080E58C0F8E3248F442
:1031B0008C2F0E94DD25811157C08C2F0E94872201
:1031C0000CC080E28C0F883058F4C77081E001C0D9
:1031D000880FCA95EAF70E942C23CF910C9466239E
:1031E0008BE58C0F833078F4C53A29F0C63A31F07C
:1031F00083E890E005C081E890E002C082E890E0BA
:10320000CF910C944B1788E58C0F873168F5C83A3D
:1032100089F0C93A91F0CA3A99F0CB3AA1F0CC3A88
:10322000A9F0CD3AB1F0CE3AB9F0CF3AC1F080E092
:1032300090E017C082EE90E014C089EE90E011C0DB
:103240008AEE90E00EC085EB90E00BC086EB90E03C
:1032500008C083EB90E005C084EB90E002C087EBF0
:1032600090E0CF910C947817CF910895882349F17D
:103270009CEF980F913A20F090E5980F9E3218F449
:103280000E94D7220DC090E2980F983058F48770B2
:1032900091E001C0990F8A95EAF7892F0E943223A5
:1032A0000C9466239BE5980F933020F480E090E027
:1032B0000C944B17885A873120F480E090E00C94EE
:1032C00078170895882321F00E942C230C946623FC
:1032D0000895882321F00E9432230C9466230895D8
:1032E0000E944C230E941B230E94662380E090E0F2
:1032F0000E944B1780E090E00C9478170E943C23CA
:103300000C947019CF92DF92EF92FF920F931F935C
:10331000CF93DF9300D000D01F92CDB7DEB76C0102
:103320000E94B723811101C385E0F601DE011196E9
:1033300001900D928A95E1F7F60140815181238138
:1033400034812115310531F05F3F31F481E04F3F89
:1033500019F403C081E001C080E080FDE6C2F601FF
:10336000F280E580E2948FE0E82249835A83FB8271
:10337000722F3D832C836F2D8D810E94FC218C0147
:103380000E94FB210E94EB20E12FE295EF708E2F2F
:1033900090E0FC01E35DFE4F0C944126812F807F7D
:1033A0001F70882311F01295107FFF20B9F01123B0
:1033B00029F0812F0E943F230E946623802F0F90C7
:1033C0000F900F900F900F90DF91CF911F910F9161
:1033D000FF90EF90DF90CF900C94CB18802F0E943D
:1033E0003619112309F4A1C2812F0E9445230F90A1
:1033F0000F900F900F900F90DF91CF911F910F9131
:10340000FF90EF90DF90CF900C946623812F807F08
:103410001F70803211F01295107F002319F00130D7
:1034200009F12BC0FF20A9F0EE2059F1F1E0812F26
:10343000EF1228C00F900F900F900F900F90DF9118
:10344000CF911F910F91FF90EF90DF90CF900C9450
:103450004F23EE2021F021E0E21609F466C20E941B
:1034600052234DC0FF20E9F085E08E1508F45DC2BF
:103470000E942923812329F042C0FF20F1F1E110AD
:1034800015C0812F0F900F900F900F900F90DF912C
:10349000CF911F910F91FF90EF90DF90CF900C9400
:1034A000621994E09E1508F440C229C0F601858196
:1034B00080FF13C08F708583E4CF003F09F472C191
:1034C00008F03EC180E4800F803208F442C1FF2042
:1034D00009F4D3C1EE2009F483C1802F0E94CB18D8
:1034E000093309F0C3C1FFEF21EE84E0F150204021
:1034F0008040E1F700C0000018C2E110C0C1812F78
:1035000042C1812F86958695837019F08130B9F07C
:103510000CC2FF2019F0C801937002C080E090E057
:103520000F900F900F900F900F90DF91CF911F9100
:103530000F91FF90EF90DF90CF900C944B17FF20EE
:1035400019F0C801937002C080E090E00F900F90D6
:103550000F900F900F90DF91CF911F910F91FF90DF
:10356000EF90DF90CF900C947817812F837009F043
:1035700070C0F110DAC1202F229526952770220FF6
:10358000220F602F6F70862F90E0A0E0B0E06C01FA
:103590007D01022E04C0CC0CDD1CEE1CFF1C0A9425
:1035A000D2F704FF12C08FE090E0A0E0B0E004C0CA
:1035B000880F991FAA1FBB1F2A95D2F7BC01CD0106
:1035C000609570958095909503C060E070E0CB01A8
:1035D0001695169513701230B1F040F56C297D29BF
:1035E0008E299F29113031F10F900F900F900F907D
:1035F0000F90DF91CF911F910F91FF90EF90DF908F
:10360000CF900C9410216C297D298E299F290F9031
:103610000F900F900F900F90DF91CF911F910F910E
:10362000FF90EF90DF90CF900C942A210E94102100
:10363000C701B6010F900F900F900F900F90DF9180
:10364000CF911F910F91FF90EF90DF90CF900C944E
:10365000F620FF2019F0812F817001C08695882304
:1036600009F463C1202F229526952770220F220F7F
:10367000602F6F70862F90E0A0E0B0E06C017D01BC
:10368000022E04C0CC0CDD1CEE1CFF1C0A94D2F7E9
:1036900004FF12C08FE090E0A0E0B0E004C0880F0B
:1036A000991FAA1FBB1F2A95D2F7BC01CD016095B7
:1036B00070958095909503C060E070E0CB01169501
:1036C000169513701230B1F040F56C297D298E29C2
:1036D0009F29113031F10F900F900F900F900F90A4
:1036E000DF91CF911F910F91FF90EF90DF90CF90DE
:1036F0000C94D7216C297D298E299F290F900F903A
:103700000F900F900F90DF91CF911F910F91FF902D
:10371000EF90DF90CF900C94E9210E94D721C70150
:10372000B6010F900F900F900F900F90DF91CF91F7
:103730001F910F91FF90EF90DF90CF900C94C521D7
:10374000023F09F45EC008F449C0033F09F46CC0AD
:10375000BECE902F9071E92E812F8F71FF2051F0F6
:103760000E945E21802FEE2019F08295807F8ACE04
:103770008F7088CE0E947F21802FEE2019F08295D5
:10378000807F01C08F700F900F900F900F900F905F
:10379000DF91CF911F910F91FF90EF90DF90CF902D
:1037A0000C946919FF20A9F0E4E0EE1508F4BDC0FF
:1037B000812F8F710F900F900F900F900F90DF91CE
:1037C000CF911F910F91FF90EF90DF90CF900C94CD
:1037D000A421F5E0FE1508F4A8C0EACFFF2099F077
:1037E000812F8F710F900F900F900F900F90DF919E
:1037F000CF911F910F91FF90EF90DF90CF900C949D
:103800005E21FF2069F3812F8F710F900F900F9031
:103810000F900F90DF91CF911F910F91FF90EF903C
:10382000DF90CF900C947F21FF2089F0812F8F7142
:103830000F900F900F900F900F90DF91CF911F91ED
:103840000F91FF90EF90DF90CF900C9449210F9053
:103850000F900F900F900F90DF91CF911F910F91CC
:10386000FF90EF90DF90CF900C944421033509F442
:103870003ACE073409F059C036CEEE2021F2802F1F
:103880000F900F900F900F900F90DF91CF911F919D
:103890000F91FF90EF90DF90CF900C943619412F4D
:1038A0004F70602FC6010E9478240F900F900F90E8
:1038B0000F900F90DF91CF911F910F91FF90EF909C
:1038C000DF90CF900C94462001112FC0FF2069F1AA
:1038D0000E947E192FEF80E792E0215080409040B7
:1038E000E1F700C000000F900F900F900F900F9025
:1038F000DF91CF911F910F91FF90EF90DF90CF90CC
:103900000C945924412F4F70602FC6010F900F90D7
:103910000F900F900F90DF91CF911F910F91FF901B
:10392000EF90DF90CF900C947B240F900F900F902E
:103930000F900F90DF91CF911F910F91FF90EF901B
:10394000DF90CF9008951F93CF93DF9300D000D0E6
:103950001F92CDB7DEB7942F4983252F5A836B83EF
:103960007C838D834C815D81452B31F02F3F31F479
:1039700081E09F3F19F403C081E001C080E0182F6F
:10398000117080FD31C049815A816B817C818D81AC
:103990000E94FC21292F22952F702C3030F42A30E0
:1039A000A0F42250223030F022C02C30C9F02F3049
:1039B000B9F01DC0853A28F48430C0F4823028F470
:1039C00015C090E2980F983088F0883E30F4803E21
:1039D00068F48450813A58F409C0803F41F406C02D
:1039E00093FB112710F903C010E001C011E0812FF3
:1039F0000F900F900F900F900F90DF91CF911F912C
:103A00000895CF93DF9300D000D01F92CDB7DEB7DB
:103A10000F900F900F900F900F90DF91CF9108951E
:103A2000CF93DF9300D000D000D0CDB7DEB726967D
:103A30000FB6F894DEBF0FBECDBFDF91CF910895D2
:103A4000CF93DF93C091B6028091B702C817A1F05F
:103A5000D0E0CE0166E070E00E943026FC01E85420
:103A6000FD4F4081518162817381848195810E94E3
:103A7000101D2196C770E8CFDF91CF910895409136
:103A8000E8025091E9026091EA027091EB028091A4
:103A9000EC029091ED020C94101D1F93CF93DF93D5
:103AA0008091ED0282958F7009F05CC08091EA02EE
:103AB000882309F457C02091B6021091B702C09133
:103AC000E802D091E902A091EB02B091EC0281E012
:103AD000CF3F09F080E0482F211709F443C0109729
:103AE00021F0DF3F21F080E003C081E001C0842F9E
:103AF00030E080FD33C0C90166E070E00E943026EE
:103B0000FC01E854FD4F81818D1328C080818C1306
:103B100025C08281811122C0838194818A1B9B0BE5
:103B2000883C9105D8F48091ED028F70806180937C
:103B3000ED02C90166E070E00E943026FC01E3540A
:103B4000FD4F90819F709061908388EE92E00E947B
:103B50008219DF91CF911F910C94201D2F5F3F4F51
:103B60002770BACFDF91CF911F9108959F92AF92A6
:103B7000BF92CF92DF92EF92FF920F931F93CF935A
:103B8000DF93CDB7DEB761970FB6F894DEBF0FBEF7
:103B9000CDBF8C0185E0F801DE011D9601900D92EC
:103BA0008A95E1F7F80140812181F280C380D480B9
:103BB0009091E8023091E9026091EB027091EC0281
:103BC0006115710531F03F3F31F481E09F3F19F4F9
:103BD00003C081E001C080E0F82FF1709F2E80FDCE
:103BE00059C188EEA82E82E0B82EE090EA02F601D4
:103BF000E61BF70BEE2009F4EDC08091ED02582F83
:103C0000507FE83CF10508F0A7C0511156C02313BE
:103C100013C0491311C0EF2CF1100EC08F708061DA
:103C20008093ED020E943F1DC5010E948219809180
:103C3000ED02F801858364C1C114D10431F02F3F36
:103C400031F481E04F3F19F403C081E001C080E00E
:103C500080FD03C081E08F2502C080E090E0F82F56
:103C6000F170EF2E80FF1FC0E091B6023091B702D5
:103C7000E31709F421C1F0E0CF0166E070E00E9493
:103C80003026DC01A854BD4F11968C911197281352
:103C900007C08C91481304C012968C91F81203C08F
:103CA0003196E770E5CFEF2CFF2009F429C1809110
:103CB000ED0281608093ED0264C0231306C04913B6
:103CC00004C0F11002C0F801A9C04D872E87FF86FD
:103CD0007C2DD98AC88A522F6F2D89890E94A31CF6
:103CE0008823A1F1FF2091F12091ED02822F82958E
:103CF0008F7090E0029774F08091E8029091E90251
:103D000098878F831986DB86CA862C87CE01079613
:103D10000E94821986E0F801A8EEB2E001900D92AF
:103D20008A95E1F70E944D1D0E943F1D12C0231786
:103D300051F14D872E87FF867C2DD98AC88A522F54
:103D40006F2D89890E94A31C81112CC0C8010E947B
:103D50008219EE24E394D4C05111E9CF7C2DD98A85
:103D6000C88A522F6F2D89890E94011D88EE92E02A
:103D70000E94821986E0F50111928A95E9F70E9466
:103D80003F1DE12CBDC04913D4CFF110D2CFF801B3
:103D90008583C8010E94821986E0F50111928A95F7
:103DA000E9F7AEC0FF2091F22091ED02822F8295BB
:103DB0008F7090E002970CF4ADCF8091E802909163
:103DC000E9029A8389831B82DD82CC822E83CE0115
:103DD00001969ECFE83CF10508F04CC0EF2CFF2087
:103DE00009F4B4CF231330C049132EC02091ED0243
:103DF00020FD21C0822F82958F70482F50E0411501
:103E00005105C9F0F80125834F30510541F08F5F0E
:103E1000982F9295907F822F8F70892B8583C80170
:103E20000E94821986E0F801A8EEB2E001900D929E
:103E30008A95E1F72CC086E0F801A8EEB2E0019087
:103E40000D928A95E1F75CC04D872E87FF867C2D09
:103E5000D98AC88A522F6F2D89890E94A31C81118B
:103E600059CF8091ED0281608093ED02C8010E94DC
:103E7000821946C07C2DD98AC88A522F6F2D898914
:103E80000E94011D86E0F50111928A95E9F70E94D2
:103E90003F1D36C0FF2009F459CF4D872E87FF867E
:103EA0007C2DD98AC88A522F6F2D89890E94A31C24
:103EB000882309F44BCF2ECF7C2DD98AC88A522F64
:103EC0006F2D89890E94FC21292F22952F70223085
:103ED00028F49F7039F0811105C00BC0243028F4FC
:103EE0009F7049F4805E883020F0C8010E948219DA
:103EF0009E2CE92C05C0F8019581907F99F7F9CFA8
:103F00008E2D61960FB6F894DEBF0FBECDBFDF9148
:103F1000CF911F910F91FF90EF90DF90CF90BF90C6
:103F2000AF909F900895CF93DF93CDB7DEB72C97D6
:103F30000FB6F894DEBF0FBECDBF4F835887698799
:103F40007A878B879C87CE0107960E94B61D8823AF
:103F5000D1F09F8188852A853B85232B31F08F3FC7
:103F600031F481E09F3F19F403C081E001C080E09B
:103F700080FD6FC04F81588569857A858B859C85CA
:103F80000E94101D66C086E0FE013796DE01119684
:103F900001900D928A95E1F7FF81E8856A857B851E
:103FA0006115710531F0EF3F31F481E0FF3F19F405
:103FB00003C081E001C080E080FD4BC08091B7026A
:103FC00090E09C012F5F3F4F277033274091B6024E
:103FD00050E02417350709F443C0F983EA837D8351
:103FE0006C8366E070E00E943026DC01A854BD4F6F
:103FF00096E0FE01319601900D929A95E1F720939B
:10400000B7020E94201D25C090E066E070E00E948B
:10401000302688549D4F0E94B61D882371F18091EF
:10402000B60290E066E070E00E943026FC01E854A1
:10403000FD4F4081518162817381848195810E940D
:10404000101D8091B60290E00196877099278093A9
:10405000B6028091B6029091B7028913D5CF0DC0F8
:104060000E947E191092B7021092B602E8EEF2E0BA
:1040700086E0DF011D928A95E9F72C960FB6F89439
:10408000DEBF0FBECDBFDF91CF910895DF92EF92DB
:10409000FF920F931F93CF93DF93FC01892B09F4B9
:1040A00088C0E12CF12CDD24D394EF01219684917A
:1040B000853709F460C058F4843708F04EC0843066
:1040C00008F068C08130D1F0823071F172C0883759
:1040D00009F45BC050F4863709F453C0873709F000
:1040E00068C08E2D0E94392352C09CE7980F9037EC
:1040F00008F05FC08F770E9436194EC08F010E5FA7
:104100001F4FFE01849190E2980F983050F4877011
:10411000FD2D01C0FF0F8A95EAF78F2F0E943F23E4
:1041200015C00E94CB1814C08F010E5F1F4FFE01F7
:10413000849190E2980F983068F48770FD2D01C04B
:10414000FF0F8A95EAF78F2F0E9445230E9466236E
:10415000E80122C00E943619FBCFCF010296FE0172
:10416000C491CC2361F0EFE9FFE03197F1F700C093
:104170000000C150F6CFCF010296FE01F490EC0191
:104180000BC00E942923E82E07C00E943C230E94F6
:10419000662302C00E94CB188F2D882341F0EFE9DF
:1041A000FFE03197F1F700C000008150F6CFFE012B
:1041B0007CCFDF91CF911F910F91FF90EF90DF9017
:1041C000089560936E0370936F03809370039093D0
:1041D00071030C94B4230895609372037093730376
:1041E00080937403909375030C94B3230F931F93E0
:1041F0000091720310917303209174033091750341
:10420000602B712B822B932B60937203709373033B
:1042100080937403909375031F910F910C94B323B3
:104220000F931F93009172031091730320917403F5
:10423000309175036023712382239323609372036B
:104240007093730380937403909375031F910F9180
:104250000C94B3230F931F93009172031091730377
:10426000209174033091750360277127822793276B
:104270006093720370937303809374039093750338
:104280001F910F910C94B32360E070E0CB010C946C
:10429000E1200F931F9341E050E060E070E08A015D
:1042A0009B0104C0000F111F221F331F8A95D2F7F4
:1042B000C901B8011F910F910C94E1200F931F9336
:1042C00041E050E060E070E004C0440F551F661FFD
:1042D000771F8A95D2F780916E0390916F03A0911A
:1042E0007003B09171038A019B01082B192B2A2BB3
:1042F0003B2BC901B8011F910F910C94E1200F9342
:104300001F9341E050E060E070E004C0440F551F8F
:10431000661F771F8A95D2F74095509560957095E6
:1043200080916E0390916F03A0917003B09171031F
:104330008A019B01082319232A233B23C901B801C1
:104340001F910F910C94E1200F931F9341E050E0D7
:1043500060E070E004C0440F551F661F771F8A9508
:10436000D2F780916E0390916F03A0917003B0918A
:1043700071038A019B01082719272A273B27C901B6
:10438000B8011F910F910C94E1200F931F9300919E
:104390006E0310916F032091700330917103602BB5
:1043A000712B822B932B1F910F910C94E1200F9373
:1043B0001F9300916E0310916F0320917003309151
:1043C000710360237123822393231F910F910C9417
:1043D000E1200F931F9300916E0310916F032091C2
:1043E00070033091710360277127822793271F91F3
:1043F0000F910C94E12008958F929F92AF92BF92FB
:10440000DF92EF92FF920F931F93CF93DF9300D031
:1044100000D01F92CDB7DEB76B837C838D838A017A
:104420008C819D81892B31F01F3F31F481E04F3F1A
:1044300019F403C081E001C080E080FF03C080E088
:1044400090E054C08B81882309F43DC080906E03B6
:1044500090906F03A0907003B090710380917203ED
:1044600090917303A0917403B0917503882A992ADF
:10447000AA2ABB2A2FE1E22EF12CD501C4010E2C71
:1044800004C0B695A795979587950A94D2F780FDB5
:1044900006C081E0E81AF10880F7D12C07C0DE2CB5
:1044A000B8018E2D0E944706019799F3E12FF0E0A5
:1044B00093E0EE0FFF1F9A95E1F7E251FD4FE00FF9
:1044C000F11DD0820CC0E12FF0E083E0EE0FFF1F62
:1044D0008A95E1F7E251FD4FE00FF11DD08009838D
:1044E0001A8369817A818D2D0E9447060F900F9063
:1044F0000F900F900F90DF91CF911F910F91FF9030
:10450000EF90DF90BF90AF909F908F900895909123
:104510001401992379F190911501992359F1982F5C
:104520009695969596959F31A1F0E0911601F091A0
:104530001701E90FF11D877021E030E0A90102C0E9
:10454000440F551F8A95E2F7CA019181892B818317
:1045500008959091990390FF29C01F928F938CE545
:1045600097E09F938F930E943E060F900F900F90BD
:104570000F9008952091160130911701F90132969C
:104580009FEF40E05191851789F09F3F19F4511139
:1045900001C0942F4F5F4E31A9F79F3F39F0F901C9
:1045A000E90FF11D97FDFA95828308950895909182
:1045B0001401992381F190911501992361F1982FAC
:1045C0009695969596959F31A9F0E0911601F091F8
:1045D0001701E90FF11D877021E030E0A90102C049
:1045E000440F551F8A95E2F7CA018095918189236E
:1045F000818308959091990390FF1CC01F928F931F
:104600008EE397E09F938F930E943E060F900F904A
:104610000F900F900895E0911601F09117019F01FE
:10462000225E3F4F9281891301C012823196E217B8
:10463000F307C1F7089581E090E0E0911601F09151
:104640001701E80FF91F1082019680329105A9F732
:10465000089580919803089590919803892B8093F1
:1046600098030895809590919803892380939803E7
:104670000895809398030895109298030895909157
:104680009703892B809397030895809590919703C2
:104690008923809397030895109297030895809338
:1046A00076030895109276030895809116019091F3
:1046B0001701FC0131969C01205E3F4F80E09191F3
:1046C00091118F5FE217F307D1F70895E09116017A
:1046D000F0911701809198038083E0911601F09189
:1046E0001701908180919703892B808380917603B5
:1046F000882361F0E0911601F09117019081892BD8
:1047000080830E94552381111092760380911601B7
:10471000909117010C9402179093590180935801BE
:1047200008958295982F9373292F220F220F982F87
:104730009C7C96959695922B892F8575880F9A7AF1
:104740009695892B08950895CF93DF9300D000D0DC
:104750001F92CDB7DEB70F900F900F900F900F9074
:10476000DF91CF910895089508950C944C1880E03E
:10477000089583B7817F8C6083BF83B7816083BFD7
:104780007894889583B78E7F83BF0895CF930E94D6
:1047900083180E940E0B0E948418C0E08C2F0E9488
:1047A000F10A811104C0CF5FC031C1F701C081E0BF
:1047B000CF9108950E94F70A0C947E191F920F92D0
:1047C0000FB60F9211248F939F93AF93BF93809155
:1047D0009A0390919B03A0919C03B0919D034196F5
:1047E000A11DB11D80939A0390939B03A0939C03FA
:1047F000B0939D03BF91AF919F918F910F900FBE8A
:104800000F901F90189582E084BD93E095BD9AEFBC
:1048100097BD80936E0008952FB7F89480919A0306
:1048200090919B03A0919C03B0919D032FBF08958D
:104830002FB7F89460919A0370919B0380919C0329
:1048400090919D032FBF08959C014FB7F8948091DC
:104850009A0390919B03A0919C03B0919D034FBF3D
:10486000821B930B089578941F920F920FB60F92AC
:1048700011248F939F93AF93BF9380919A0390914C
:104880009B03A0919C03B0919D030196A11DB11DB6
:1048900080939A0390939B03A0939C03B0939D03F2
:1048A000BF91AF919F918F910F900FBE0F901F906E
:1048B00018950E94C815F89487E797E79093010828
:1048C0008093000887E090EBDC018093AC03909329
:1048D000AD03A093AE03B093AF039CE088E10FB6A5
:1048E000F894A895809360000FBE90936000FFCF6E
:1048F00080E090E008950895CF93C82F1F928F9382
:1049000080E897E09F938F930E943E0681E090E0BD
:10491000A0E0B0E0BC01CD0104C0660F771F881F86
:10492000991FCA95D2F70E94EC200F900F900F901C
:104930000F90CF910C947E19CF938732A8F58E31CA
:1049400008F02BC1803109F49FC0F8F4873009F4D6
:1049500064C0A8F4863009F024C180919903817F56
:104960008E7F8093990385E897E00E94A50588E6ED
:104970009AE00E94A50581E080939E034CC08B3095
:10498000F1F18E3009F46CC00CC1863109F4B0C06D
:1049900020F4813109F4EDC004C1893109F491C0DA
:1049A0008B3109F449C0FDC0883349F150F4893294
:1049B00009F4F1C0853309F4EEC0873209F0F1C083
:1049C000EAC0833409F4E7C028F48A3308F4E9C064
:1049D0008953E4C0883409F0E4C00E947E1987E559
:1049E0009AE00E94A5052FEF83ED90E321508040CF
:1049F0009040E1F700C000000E9459240CC080EAFA
:104A000097E05CC08EE39AE00E94A505809199032F
:104A1000816080939903C1E0C9C080919903C82F38
:104A2000C17080FFEFCF8AE49AE00E94A5058091D3
:104A30009903817F8E7F3DC09091990391FBCC2794
:104A4000C0F981E0C827892FC0FB81F980939903C1
:104A5000CC2319F081E39AE027C083E29AE02EC0CC
:104A60009091990392FBCC27C0F981E0C827892F48
:104A7000C0FB82F980939903CC2319F084E19AE07A
:104A800013C084E09AE01AC09091990393FBCC275D
:104A9000C0F981E0C827892FC0FB83F9809399036F
:104AA000CC2351F088EF99E00E94A50580919903ED
:104AB0008160809399037AC08BEE99E00E94A505EE
:104AC000AACF8CED99E00E94A50586EB99E00E94A3
:104AD000A5058EE699E00E94A50586E499E00E946E
:104AE000A5058AEF98E00E94A5058EEC98E0E6CF38
:104AF00080EC98E00E94A5050E94F6161F928F9305
:104B000086EA98E09F938F930E943E06809114015D
:104B10001F928F938FE898E09F938F930E943E0699
:104B200080919E021F928F938CE798E09F938F93C2
:104B30000E943E06809115011F928F9389E698E0AE
:104B40009F938F930E943E060E9418249F938F93F9
:104B50007F936F9382E598E09F938F930E943E0628
:104B60008DB79EB746960FB6F8949EBF0FBE8DBF09
:104B700052CF0E947E19C091150181E0C827C093D1
:104B80001501CC2329F088E498E00E94A5050EC009
:104B90008DE398E093CF80E001C08D510E947C248A
:104BA0003ACF8BE398E00E94A505C0E08C2FCF910F
:104BB000089580E008950C94D925CF93C82F809153
:104BC0009E03882319F0813059F042C0E09116010C
:104BD000F09117018081823261F08434D9F509C0E7
:104BE000E0911601F09117018081823211F0843436
:104BF00061F48C2F0E94DB25811104C08C2F0E9450
:104C00009C2424C081E090E021C08C2F0E94D925F3
:104C100081111BC0C43189F018F4CB3029F010C0C9
:104C2000C93259F0C83361F485E897E00E94A505C0
:104C30008CE797E00E94A50508C010929E030CC067
:104C40008AE797E00E94A50507C081E0817006C051
:104C500010929E0380E002C080E0F8CFCF910895CB
:104C60000024552704C0080E591F880F991F00976C
:104C700029F076956795B8F37105B9F7802D952FD2
:104C80000895EE0FFF1F0590F491E02D0994F8941C
:024C9000FFCF54
:104C92000080FFFF057D010000FF020F6F0F050F6F
:104CA2003A0F060F010177035F5A313530005F3F3B
:104CB2003F3F3F005F415438340041540058540094
:104CC2004E4F4E45005445524D494E414C004036E0
:104CD2002239AA06740652061906A505BE05D7058D
:084CE200F705000800040002C0
:106800008800EA44E944E244040005000600070069
:10681000080009000A000B000C000D000E000F001C
:1068200010001100120013001400150016001700CC
:10683000180019001A001B001C001D001E001F007C
:10684000200021002200230024002500260027002C
:10685000280029002A002B002C002D002E002F00DC
:10686000300031003200330034003500360037008C
:10687000380039003A003B003C003D003E003F003C
:1068800040004100420043004400450046004700EC
:10689000480049004A004B004C004D004E004F009C
:1068A000500051005200530054005500560057004C
:1068B000580059005A005B005C005D005E005F00FC
:1068C0006000610062006300640065A185006700EC
:1068D000680069006A006B006C006D006E006F005C
:1068E0007000710072007300890087008A008B00BD
:1068F000E000E100E200E300E400E500E600E7007C
:106900000100010001000100EA4401000100E2442D
:106910000100010001000100460001004A004B0097
:10692000010001004700480001000100E9440100A6
:106930000100010001000100010001003A003B00DC
:106940003C003D003E003F0040004100420043004B
:10695000010035004C0039000100440045005200A0
:1069600049000100010050004F0029004D004E0079
:1069700051000100010001000100010001000100BF
:1069800001000100010001000100010001000100FF
:1069900001000100010001000100010001004D00A3
:1069A0004A004E004B0001000100010001000100FF
:1069B00001000100010001000100010001000100CF
:1069C00001000100010001000100010001000100BF
:1069D00001000100010001000100010001000100AF
:1069E0000100010001000100490001000100010057
:1069F000010001000100010001000100010001008F
:00000001FF
