:100000000C9448050C94B3050C94AD080C94B305FE
:100010000C94B3050C94B3050C94B3050C94B30580
:100020000C94B3050C94B3050C946F160C94B305A3
:100030000C9439240C94B3050C94B3050C94B305BB
:100040000C94B3050C94B3050C94B3050C94B30550
:100050000C94B3050C948E240C94B3050C94B30546
:100060000C94B3050C94B3050C94B3050C94B30530
:100070000C94B3050C94B3050C94B3050C94B30520
:100080000C94B3050C94B3050C94B3050C94B30510
:100090000C94B3050C94B3057D0A7F0A8B0A8B0A76
:1000A0008B0A8B0A8B0A8B0A810A830A850A8B0AC0
:1000B0008B0A7F0A8D0A8B0A8B0A470A7D0A8B0AF4
:1000C0008B0A830A8B0A8B0A8B0A8B0A8B0A8B0A90
:1000D000850A7D0A690A8B0A6D0A8B0A8B0A8B0ACC
:1000E000490A810A8B0A8B0A770A8B0A8B0A8B0AC8
:1000F0004B0A890A8B0A6B0A8B0A7F0A8B0A8B0AC6
:100100007B0A6F0A8B0A710A830A8B0A8B0A8B0A95
:10011000790A730A8B0A8B0A8B0A8B0A8B0A8B0A61
:100120008B0A750A8B0A4D0A8B0A8B0A810A8B0A85
:100130008B0A890A8B0A8B0A8B0A8B0A8B0A8B0A19
:100140008B0A8B0A8B0A4F0A8B0A8B0A8B0A770A57
:100150008B0A8B0A8B0A8B0A8B0A8B0A8B0A8B0AF7
:100160008B0A8B0A510A8B0A530A550A8B0A8B0A8F
:100170008B0A570A590A5B0A8B0A5D0A5F0A8B0AC7
:100180008B0A8B0A870A610A8B0A650A630A670A67
:100190008B0A8B0A8B0A8B0A890AB10ABF0ACB0A1F
:1001A000CB0AA30ACB0ACB0ACB0ACB0ACB0ACB0ACF
:1001B000CB0ACB0ACB0ACB0ACB0ACB0ACB0AA50ABD
:1001C000CB0AA70ACB0ACB0ACB0ACB0AC30ACB0AB3
:1001D000DA0AC10ACB0ACB0ACB0ACB0ACB0ACB0A72
:1001E000CB0ACB0ACB0ACB0ACB0ACB0ACB0A9B0A97
:1001F000B70AA90ABB0ACB0AAB0ACB0AAF0ACB0AD9
:10020000B90AAD0ABD0AB30AB50ACB0ACB0ACB0AB2
:10021000CB0ACB0ACB0ACB0A9D0A9F0AA10AC50AC0
:10022000C70ACB0ACB0ACB0AC90AA90BC70BEF0B2B
:10023000090C170C230C430C5A0C7D0C9A0C580D0E
:10024000890D020E340E1E0E450E570E5F0E650E02
:10025000690E6F0ECB0ECD0ECF0ED10E110FD90E33
:10026000D90ED90ED30ED50ED70EBA14E114D91566
:10027000E114D9152D155015D915A715B615391A2C
:10028000391A711A711AEC1A001D001D001D201B6D
:10029000001DC81AC81ABA1C001DCF1CED1C007B1B
:1002A00046010203763A687F6577482B353B6978CB
:1002B000796439141E3C6A7A1D16041A1F3D6B06B8
:1002C0001B070821203E6C2C19091715223F6D11C0
:1002D000050B0A1C23406E7E100D182425416F3635
:1002E0000E0C122726427037380F33132D437175C9
:1002F00034322F2E44727C7D283031744573515036
:100300004A524D492A5466594F5C5F4C4B4E6263CA
:100310005A5D5E60295367585B565761475548429E
:10032000403E3C3A3B456843413F3D2B357E697A30
:10033000790078141E7C6A7B1D16041A1F7F6B06D9
:100340001B070821204D6C2C19091715224A6D1125
:10035000050B0A1C234C6E49100D182425516F36CD
:100360000E0C1227264F7037380F33132D5271752C
:1003700034502F2E4E72397D283065314B735464C2
:10038000586776012A773259745C5F6602036263AC
:100390005A5D5E60295344575B5655614746802934
:1003A0001E1F20212223242526272D2E2A2B141A16
:1003B0000815171C180C12132F302878041607097B
:1003C0000A0B0D0E0F33343579311D1B061905113B
:1003D000103637387D557A2C393A3B3C3D3E3F400C
:1003E00041424353475F6061565C5D5E57595A5BBB
:1003F00062634648324445677B7F65030102525081
:10040000514F68696A6B6C6D6E6F707172580049FC
:100410004C754A4D734B4E767C777E7466547225CC
:100420003032582000623A2530345820006525309B
:10043000325820002146554C4C21200021464621AF
:10044000200077253032582000214353335F463057
:10045000210A00214353335F5245414459210A0088
:10046000214353325F45305F4630210A0021435318
:10047000325F4630210A00214353325F4530210A62
:1004800000214353325F494E4954210A002143530E
:10049000315F45305F25303258210A000A5B4F56E4
:1004A000525D20004C2575200053257520000A4917
:1004B000443A2530345828257325732920004D6F80
:1004C0007573653A206E6F7420737570706F7274F7
:1004D00065640A00522575200057257520005725B0
:1004E0007520005725752000582575200041257579
:1004F000200041412575200049257520005B4348B7
:10050000475D20000A5052543A2530325820495352
:10051000523A2530345820005B5253545D20000A73
:100520004552523A25303258204953523A253034F8
:100530005820000A4B6579626F61726420737461A0
:1005400072742E0A000A55534220636F6E66696703
:10055000757265642E0A000A0A544D4B3A343738D6
:1005600033623863652F4C5546410A0A003403490B
:100570000042004D0020005000430020006B006549
:1005800000790062006F0061007200640020006367
:10059000006F006E007600650072007400650072E6
:1005A0000000000E0374002E006D002E006B002E64
:1005B0000000000403090409027400040100A032D1
:1005C00009040000010301010009211101000122B9
:1005D00040000705810308000A0904010001030027
:1005E00000000921110100012236000705820308DD
:1005F000000A0904020002030000000921110100A1
:1006000001222200070583032000010705030320C0
:100610000001090403000103000000092111010089
:100620000122390007058403200001120110010096
:10063000000008EDFEEE1B010001020001050109AA
:1006400006A101050719E029E715002501950875A0
:100650000181020508190129059505750191029589
:1006600001750391010507190029F715002501956A
:10067000F875018102C00631FF0974A101097515E1
:100680000026FF009520750881020976150026FFD7
:1006900000952075089102C005010980A10185021D
:1006A0001601002637001A81002AB700751095013F
:1006B0008100C0050C0901A1018503160100269CDB
:1006C000021A01002A9C02751095018100C00501E3
:1006D0000906A101050719E029E71500250195087C
:1006E0007501810295017508810105081901290527
:1006F0009505750191029501750391010507190092
:1007000029FF150026FF00950675088100C0636F5C
:100710006E73756D65723A20253034580A0073790E
:100720007374656D3A20253034580A000A0025306C
:10073000325820006B6579626F6172643A20004C18
:1007400045443A20253032580A0025583A25303899
:100750006225730A000A20203031323334353637AF
:100760000A0064656C5F6B65795F6269743A206347
:10077000616E27742064656C3A20253032580A0077
:100780006164645F6B65795F6269743A2063616E6E
:100790002774206164643A20253032580A003F00F3
:1007A000433E20004C25640A000A092D20436F6E49
:1007B000736F6C65202D0A4553432F713A0971758B
:1007C00069740A000A092D204D61676963202D0AAA
:1007D000643A0964656275670A783A096465627506
:1007E00067206D61747269780A6B3A096465627595
:1007F00067206B6579626F6172640A6D3A0964659E
:10080000627567206D6F7573650A763A0976657251
:1008100073696F6E0A733A097374617475730A634E
:100820003A09636F6E736F6C65206D6F64650A3093
:100830002D343A096C61796572302D342846313097
:100840002D4634290A506175733A09626F6F746CD2
:100850006F616465720A6E3A094E4B524F0A003F4F
:10086000004E4B524F3A206F66660A004E4B524F75
:100870003A206F6E0A0074696D65725F726561641B
:10088000333228293A202530346C580A006B6579B8
:10089000626F6172645F6E6B726F3A2025580A0056
:1008A0006B6579626F6172645F69646C653A20257B
:1008B000580A006B6579626F6172645F70726F7461
:1008C0006F636F6C3A2025580A00686F73745F6B12
:1008D0006579626F6172645F6C65647328293A2080
:1008E00025580A000A092D20537461747573202D50
:1008F0000A004743433A20352E342E3020415652C9
:100900002D4C4942433A20322E302E30204156524F
:100910005F415243483A2061767235310A004F50A8
:1009200054494F4E533A204C554641204558545255
:10093000414B455920434F4E534F4C4520434F4D5B
:100940004D414E44204E4B524F204B45594D415046
:100950005F53454354494F4E20424F4F544C4F41F3
:100960004445525F53495A450A004255494C443A5E
:10097000203437383362386365202831343A3337CE
:100980003A3334204665622031302032303231290A
:100990000A005649443A2030784645454428742E8A
:1009A0006D2E6B2E29205049443A203078316265F3
:1009B000652849424D205043206B6579626F617212
:1009C0006420636F6E766572746572292056455295
:1009D0003A203078303030310A00444553433A20D1
:1009E000636F6E766572742049424D205043206BD0
:1009F0006579626F61726420746F205553420A00FA
:100A00000A092D2056657273696F6E202D0A000A3F
:100A10006D6F7573653A206F66660A000A6D6F75B3
:100A200073653A206F6E0A000A6B6579626F6172B6
:100A3000643A206F66660A000A6B6579626F6172BC
:100A4000643A206F6E0A000A6D61747269783A2008
:100A50006F66660A000A6D61747269783A206F6E7B
:100A60000A000A64656275673A206F6E0A000A64BC
:100A7000656275673A206F66660A000A0A626F6FE0
:100A8000746C6F616465722E2E2E2000433E200030
:100A900011241FBECFEFD0E2DEBFCDBF04B603FEF0
:100AA00049C08091AC039091AD03A091AE03B09189
:100AB000AF038730904BA740B04B09F03BC010927A
:100AC000AC031092AD031092AE031092AF0314BEAC
:100AD0000FB6F894A89580916000886180936000BB
:100AE000109260000FBE1092010810920008E3E01F
:100AF000F0E089E080935700E491E695E370E150DF
:100B0000E33040F4F0E0EE0FFF1FEE5AFE4F20817D
:100B1000318102C020E030E280E090E0A2E0B0E06D
:100B2000821B930BA109B109B595A7959795879558
:100B3000FC01099511E0A0E0B1E0ECE2FDE400E089
:100B40000BBF02C007900D92A835B107D9F723E07B
:100B5000A8E5B1E001C01D92AC3AB207E1F70E94EE
:100B6000D5110C9494260C940000FF93EF93E09120
:100B70005801F0915901309709F00995EF91FF91D3
:100B80000895FC018591803011F0EFDFFBCF0895CF
:100B9000FF27E0E230E247FF0CC0419597FF09C014
:100BA000EDE26095709580959095611D711D811D98
:100BB000911D27FF02C0219530E350E2AA27660F5E
:100BC000771F881F991FAA1FA41710F0A41B6395F5
:100BD0005A95A9F7AA3008F0A95FA05DAF93F395E5
:100BE000611571058105910541F7ED3211F4EF931F
:100BF000F395F21718F43F93F395FBCF8F91B5DF80
:100C0000FA95E1F70895E991F9918591803021F005
:100C1000853219F0AADFF9CF089520E0E8945591C4
:100C20005532C1F3503311F4689455915A3348F456
:100C3000505390F3220F022E220F220F200D250F6A
:100C4000F4CF0EF4219589919991533619F35337C6
:100C500029F1533559F1BC0188279927E8945C366E
:100C600021F48991999168945591543639F446EF5D
:100C70007EF077FF0DC08FEF9FEF0AC055374AE037
:100C800039F0583540E121F0523642E009F008953C
:100C9000FF93EF937DDFEF91FF91B7CFFF93EF933A
:100CA000FC0181918030B9F360DFFBCFFF93EF93BC
:100CB00068DFF1CFDF93CF93CDB7DEB72596A3DF03
:100CC000CF91DF910895282F80916501823071F0D6
:100CD0008330B1F0813001F5E62FF0E038E0739F0A
:100CE000E00DF11D1124E256FC4F13C0E62FF0E099
:100CF00088E0789FE00DF11D1124E25EFC4F09C0F1
:100D0000E62FF0E038E0739FE00DF11D1124E2566C
:100D1000FD4FE491E03819F480E090E008959E2FB3
:100D20009077892F90E034E0959587953A95E1F793
:100D300038E0239F800D911D112444E0880F991FF6
:100D40004A95E1F7EF709C012E0F311DF901EE0F6E
:100D5000FF1FE050F8498591949108955998519A50
:100D600008955198599A08955898509A089550980E
:100D7000589A08955198599A85E08A95F1F700009C
:100D800089B18695817008955098589A85E08A9522
:100D9000F1F7000089B181700895CF93DF93EC01E2
:100DA0000E94BA06882341F0209731F085E08A95A9
:100DB000F1F700002197F4CFCE01DF91CF91089594
:100DC000CF93DF93C2E3D0E00E94BA06811108C03E
:100DD000209731F085E08A95F1F700002197F4CF54
:100DE000CE01DF91CF9108952E9826982F982798BD
:100DF0000E94AE060E94B706E9E6F0E080818860B6
:100E00008083E9980895E19AE99A0E94B1060C94CA
:100E1000B706E9980E94AE060C94B706CF93DF930D
:100E20002FB7F894C0910201D0910301CE01882719
:100E300081159F4F19F080E09FEF02C08FEF90E087
:100E40008C2B9D2B90930301809302012FBFCE0129
:100E500099278F3F910581F5CD2FDD27C03FD10523
:100E600051F0CF3FD10509F451C080919903C034AE
:100E7000D10599F407C08091990380FF33C08CE3BA
:100E800094E004C080FF2EC084E394E09F938F938E
:100E90000E945A060F900F9025C080FF37C0DF9345
:100EA000CF938DE294E09F938F930E945A060F9008
:100EB0000F900F900F902AC0CE018F6F019699F07E
:100EC0008091990380FF0CC0DF93CF9385E294E07B
:100ED0009F938F930E945A060F900F900F900F9040
:100EE000CD2F01C0CFEF8091990380FF0CC01F92DE
:100EF000CF938EE194E09F938F930E945A060F90B8
:100F00000F900F900F908C2F90E002C08FEF9FEF0B
:100F1000DF91CF910895CF93CAE1C15069F00E944B
:100F20000E078F3F2FEF920749F48FE99FE001975B
:100F3000F1F700C00000F1CF8FEF9FEFCF91089540
:100F400010925E0110925D0110925C0110925B01A3
:100F500080E090E890930101809300018FEF9FEF74
:100F600090930301809302010895EF92FF920F93F3
:100F70001F93CF93DF93082F10925B018091990309
:100F800080FF0CC01F920F9382E494E09F938F9395
:100F90000E945A060F900F900F900F90E9980E94B0
:100FA000AE060E94B7068FE891E00197F1F700C006
:100FB00000000E94B4068FE891E00197F1F700C0AD
:100FC00000000E94B10680E69AEE0E94CD06892BB1
:100FD00011F481E084C0C0E0D0E0FF24F39410E07D
:100FE000EE24E39490E59A95F1F7C8010C2E02C027
:100FF000959587950A94E2F780FF04C0FE240E942D
:10100000B70602C00E94B4060E94E006892B11F4C4
:1010100082E065C082E390E00E94CD06892B11F446
:1010200083E05DC02196C830D105E1F680E58A9560
:10103000F1F7FF2019F00E94B70602C00E94B40623
:101040000E94E006892B11F484E049C082E390E01D
:101050000E94CD06892B11F485E041C090E59A9558
:10106000F1F70E94B7060E94E006892B11F486E092
:1010700036C080915C01813109F440C082E390E088
:101080000E94CD06892B19F0C2E3D0E009C087E0A9
:1010900026C0209759F025E02A95F1F70000219706
:1010A0000E94C4068111F5CFCD2B11F488E017C042
:1010B0000E94E006892B19F0C2E3D0E009C089E064
:1010C0000EC0209759F085E08A95F1F7000021972E
:1010D0000E94C4068823A9F3CD2B81F48AE0809373
:1010E0005B0180915B01806180935B0180915C0179
:1010F00081111AC080915B018730B1F48FEF9FEFAF
:1011000090930301809302010E94A0070E94B10600
:101110000E94B706E19AE99ADF91CF911F910F9152
:10112000FF90EF900C948B070E94AE060E94B706CA
:101130008FE39FE10197F1F700C000000E94B10624
:101140000E94B706E19AE99A8FEF9FEFDF91CF9166
:101150001F910F91FF90EF9008951F920F920FB67D
:101160000F9211242F933F934F935F938F939F93ED
:1011700029B180919A0340910001509101014115DC
:10118000504819F480935A010FC090915A01891B5D
:10119000833050F0809100019091010190935E01A5
:1011A00080935D0180E2DDC080910001909101019A
:1011B00096958795909301018093000120FF09C0C7
:1011C00080910001909101019068909301018093BA
:1011D00000018091000190910101992780389105CB
:1011E00009F4F9C0A8F48032910509F4F4C038F488
:1011F000009709F4F0C0409709F489C0A9C0803471
:10120000910509F4E8C08035910509F480C0A0C0BB
:10121000803C910539F150F48039910509F477C08B
:10122000803A910509F094C084E64DC0803D910557
:1012300009F46DC0803E910509F08AC080910001DB
:101240009091010190935E0180935D018091000176
:1012500090910101892F99279093010180930001BA
:1012600083E252C084E649990FC0882369F095E073
:101270009A95F1F700008150F6CF882349F095E068
:101280009A95F1F7000081504999F7CF8111A3C0D9
:10129000809100019091010190935E0180935D0126
:1012A0008091000190910101892F9927909301016C
:1012B0008093000182E228C0882379F095E09A9516
:1012C000F1F700008150499BF7CF07C0882349F010
:1012D00095E09A95F1F7000081504999F7CF811177
:1012E0007AC0809100019091010190935E018093FA
:1012F0005D018091000190910101892F99279093C0
:1013000001018093000181E280935C0133C08091F0
:1013100000019091010190935E0180935D018091A5
:1013200000019091010197FF02C080E101C081E1BD
:1013300080935C01809100019091010146E09695B7
:1013400087954A95E1F7909301018093000112C0BF
:10135000809100019091010190935E0180935D0165
:1013600080E880935B0180915B0190E0982F882753
:101370008F6F27C0809100019091010199278F3FC5
:10138000910511F480EFEDCF809103018F3F31F093
:10139000809102018F3F11F080E4E3CF8091020140
:1013A00090910301982F8827909303018093020165
:1013B000209100013091010180910201909103017F
:1013C000822B909303018093020180E090E8909338
:1013D0000101809300019F918F915F914F913F9107
:1013E0002F910F900FBE0F901F901895CF93C82F7D
:1013F0008DEE0E94B5078A3F910521F48C2FCF9185
:101400000C94B507CF910895E82FE695E695E695FB
:10141000EF70F0E0E759FE4F4081282F277081E000
:1014200090E002C0880F991F2A95E2F7242F30E040
:1014300028233923232B11F4842B80830895E82F4C
:10144000E695E695E695EF70F0E0E759FE4F2081CE
:10145000382F377081E090E002C0880F991F3A95CD
:10146000E2F7422F50E048235923452B19F080958D
:10147000822380830895482F50E0FA013397E138A2
:10148000F10508F048C0E45BFF4F0C948B2687E120
:1014900008958FE108958CE5089580E6089582E629
:1014A000089587E2089583E508958FE2089589E31A
:1014B000089587E308958FE3089587E408958FE4FE
:1014C000089586E508958EE508958FE7089580E0F4
:1014D000089585E608958EE608958FE6089580E3E1
:1014E000089588E3089580E4089588E4089580E5E8
:1014F000089587E508958FE5089588E1089588E0C7
:10150000089580E2089580E1089589E108958DE6C7
:10151000089588E208958F7708958FE00895CF9316
:10152000482F50E0FA017C97E834F105A0F5E35329
:10153000FF4F0C948B2685E53EC08AE53CC08BE5C9
:101540003AC08CE538C08DE536C08EE534C08FE5F5
:1015500032C080E630C081E62EC082E62CC083E631
:101560002AC08FE628C081E726C082E724C084E72E
:1015700022C085E720C087E71EC088E71CC08AE735
:101580001AC08CE718C08FE716C080E714C089E73F
:1015900012C08BE710C0C82F1F928F938DE894E084
:1015A0009F938F930E945A060F900F900F900F9069
:1015B0008C2F01C084E5CF9108950F931F93CF9393
:1015C000DF930E9467248C010E940E07EC010196B4
:1015D00031F4C8010E947F24843F9140A8F3CE01DA
:1015E000DF91CF911F910F9108950E94F4060C9402
:1015F000030780919903816080939903E9E6F1E004
:10160000119281E0E937F807D9F70895E82FF0E063
:10161000E759FE4F80810895E9E6F1E0119281E0FB
:10162000E937F807D9F70895982F8091650182303E
:1016300048F092FB882780F990FD826091FD8460DC
:101640000C94F6090895CF93DF9380915B01882372
:1016500071F180915D0190915E0120915B019F93FA
:101660008F931F922F938FE195E09F938F930E940A
:101670005A0680915B0180750F900F900F900F902C
:101680000F900F9071F4809164018B3051F488E1D8
:1016900095E09F938F930E945A06109264010F90D9
:1016A0000F9010925B0110925E0110925D0180918B
:1016B0005C01882309F440C090915C01809168012D
:1016C0009817D1F180915D0190915E0120915C01AC
:1016D0009F938F931F922F9384E095E09F938F9316
:1016E0000E945A06809168010F900F900F900F9002
:1016F0000F900F9085FF04C090915C0194FD06C08F
:1017000084FF12C080915C0185FF0EC0809164014E
:101710008B3051F48DEF94E09F938F930E945A0683
:10172000109264010F900F9080915C01809368018A
:1017300010925E0110925D01E09164018E2F90E0A5
:101740008C30910508F071C3FC01EB5EFE4F0C94E8
:101750008B260E9467249F938F9388EF94E09F933A
:101760008F930E945A0610926501109267011092A1
:101770006601109268010E940C0B0E94E9190E94F8
:101780006724909363018093620181E075C00E9499
:101790000E078A3A9105B9F40E9467249F938F93AC
:1017A00082EF94E09F938F930E945A060E946724D1
:1017B000909363018093620187E0809364010F90AE
:1017C0000F900F900F9080916201909163010E94A1
:1017D0007F24893B9B4008F428C382E015C00E9407
:1017E00067249F938F938DEE94E09F938F930E9435
:1017F0005A068FEF0E94B5070F900F900F900F9031
:101800008A3F910521F486E0809364010EC383E052
:10181000FBCF0E9409072E98269A2F98279A0E949C
:101820006724909363018093620184E0EDCF8091FF
:101830006201909163010E947F24853F914008F4EA
:10184000F4C285E0E1CF2E9826982F9827980E9421
:10185000A0070E9403070E9467249F938F9388EE3E
:1018600094E09F938F930E945A060E94672490935E
:1018700063018093620186E0809364010F900F9072
:101880000F900F90D2C20E940E07019609F4CDC2AC
:101890000E9467249F938F9383EE94E09F938F938E
:1018A0000E945A060E94672490936301809362010C
:1018B00087E0E2CF80916201909163010E947F24D2
:1018C000853F914018F089E0809364010E940E07E3
:1018D000019609F4AAC20E9467249F938F938EED0C
:1018E00094E09F938F930E945A060E9467249093DE
:1018F00063018093620188E0BFCF80916201909183
:1019000063010E947F24853F914018F089E0809315
:1019100064010E940E07019609F487C20E946724A1
:101920009F938F9389ED94E09F938F930E945A0623
:1019300089E0A2CF80915C018131C1F082EF0E94E9
:10194000B5078F3F3FEF9307A1F08A3F9105A1F4C0
:101950000E94DD0A8F3F2FEF920789F0D82FCC2706
:101960000E94DD0A9E01282BC9010BC08DEF9FEF5D
:1019700008C08FEF9FEF05C08EEF9FEF02C080E0A1
:1019800090E090936701809366010E9467249F9383
:101990008F9384ED94E09F938F930E945A068091D9
:1019A0006601909167010F900F900F900F90009734
:1019B00011F482E02DC08F3F3FEF930711F481E0D7
:1019C00027C09C012D5F3F4F2230310590F38F3FA0
:1019D000910559F48EEB94E09F938F930E945A06E1
:1019E000109265010F900F901FC09C0125583B4A33
:1019F0002230310580F480EF0E94B5078A3F9105BF
:101A0000C1F683E00E94B5078A3F910591F683E015
:101A10008093650109C0803B2FEB9207C1F38827B3
:101A200081159F4BA1F3C5CF80916601909167010D
:101A30008E3F2FEF920749F08D3F3FEF930741F024
:101A4000009749F04DE151E008C04EE151E005C07A
:101A500048E151E002C044E251E0209165012130AB
:101A600039F0223041F0233049F020E331E008C062
:101A70002DE231E005C02AE231E002C025E331E089
:101A80005F934F933F932F939F938F938EEA94E0AE
:101A90009F938F930E945A068AE0809364018DB7CA
:101AA0009EB708960FB6F8949EBF0FBE8DBFBDC1FE
:101AB0000E9467249F938F9389EA94E09F938F936A
:101AC0000E945A060F900F900F900F908091650121
:101AD000823031F0833061F488EF0E94B50704C092
:101AE00080915C01813121F00E9461170E94140BEA
:101AF0008BE0809364010E9467249F938F9384EA14
:101B000094E09F938F930E945A060F900F900F902E
:101B10000F900E940E079C012F3F9FEF390709F499
:101B200084C12115310519F02F3F310569F40E9458
:101B30000C0B0E94E9198CE994E09F938F930E940B
:101B40005A060F900F9071C190916501923009F47F
:101B50004CC0933009F4CBC0913009F066C190912C
:101B60006101923099F028F4992341F09130C1F04D
:101B700039C0933061F1943081F134C0803E21F05E
:101B8000813E51F482E005C081E003C08D31D9F47B
:101B900083E08093610149C187FFE3C08F770DC166
:101BA000863301F118F48A3229F41CC08A3AD1F044
:101BB000863BC1F087FD03C00E948F0A0BC08F7760
:101BC0000E948F0A0DC08D3969F484E0E2CF85341C
:101BD00049F485E50E94040A05C0853C19F485E5B1
:101BE0000E941F0A1092610120C1E09160014E2FF6
:101BF00050E04930510508F077C0FA01EF5DFE4F23
:101C00000C948B26803E69F030F4833871F0843870
:101C100071F48FE757C0813E31F0803F41F481E09D
:101C20005BC082E059C084E057C082E04BC087FFB0
:101C300098C00E940C0B81E894E098C0893509F4A3
:101C400053C0803F19F0823119F44EC083E044C084
:101C50001092600187FD03C00E943B0A82C00E946F
:101C60000C0B87E794E082C0833821F0843821F49C
:101C70008FE738C082E036C01092600187FF9DC0B8
:101C80000E940C0B8DE694E071C0109260018231CD
:101C900009F4CBC0893509F4C8C087FD03C00E9490
:101CA0003B0A8BC00E940C0B80E694E05FC084313D
:101CB00021F0803FC9F486E00FC085E00DC0873772
:101CC00099F480E00E94040A0FC0843169F487E02F
:101CD00003C0803F49F488E080936001A6C0873745
:101CE00019F480E00E941F0A109260019EC090913A
:101CF0005F01913009F443C038F0923009F463C0B9
:101D0000933009F47FC091C0863809F168F48338B4
:101D1000D1F020F4803819F582E06CC08438A9F045
:101D20008538E9F48BE01DC08C38A9F030F4873891
:101D300081F08B38A1F481E014C08D3871F0803FC0
:101D400071F481E057C082E00CC08FE70AC086E0E2
:101D500008C080E006C089E004C08AE002C087FDB8
:101D600003C00E94040A61C083E594E09F938F93AF
:101D70000E945A060F900F901092640156C0482F8F
:101D800050E0FA01E358F109EB30F10590F4E65D1B
:101D9000FE4F0C948B2682E045C08FE743C08BE05A
:101DA00041C086E03FC081E03DC089E03BC08AE0A1
:101DB00039C010925F0187FD03C00E941F0A35C021
:101DC00089E494E0D3CF853279F030F4863171F034
:101DD0008E3199F480E00BC0863221F0803F69F4A7
:101DE00083E008C08DE503C083E501C081E50E9462
:101DF000040A05C080935F0118C00E940C0B10926A
:101E00005F0113C08E3169F020F48631B1F781E5AE
:101E100009C0853221F0863281F78DE503C083E564
:101E200001C080E00E941F0AEACF81E0DF91CF91DC
:101E3000089580919D0208950895CF93DF9300D077
:101E40001F92CDB7DEB72091A303243021F523E004
:101E500029839B838A8382E08093E9008FEF9091AE
:101E6000E800815095FD06C095ED9A95F1F70000C8
:101E70008111F5CF8091E80085FF0DC040E050E072
:101E800063E070E0CE0101960E9489138091E80022
:101E90008E778093E8000F900F900F90DF91CF9195
:101EA0000895CF93DF9300D01F92CDB7DEB7209176
:101EB000A303243029F522E02983805891099B83CC
:101EC0008A832093E9008FEF9091E800815095FD7F
:101ED00006C095ED9A95F1F700008111F5CF80913C
:101EE000E80085FF0DC040E050E063E070E0CE0107
:101EF00001960E9489138091E8008E778093E80014
:101F00000F900F900F90DF91CF910895CF93DF93B3
:101F1000EC019091A303943009F048C08091140122
:101F20008823D9F0809115018823B9F09093E900B6
:101F300081E8815049F09091E80095FD05C09AE252
:101F40009A95F1F700C0F5CF8091E80085FF2EC08B
:101F500040E050E060E270E019C081E08093E90069
:101F600081E8815059F09091E80095FD07C0EFE3BA
:101F7000F1E03197F1F700C00000F3CF8091E80065
:101F800085FF14C040E050E068E070E0CE010E94A0
:101F900089138091E8008E778093E80080E2FE014B
:101FA000ADE7B2E001900D928A95E1F7DF91CF9114
:101FB0000895CF93C0917B01C1110BC00E9473247F
:101FC000643C79408105910520F081E080937B019C
:101FD000C1E08C2FCF910895FF920F931F93CF9361
:101FE000DF93D82F0FB607FE83C08091A303843000
:101FF00081F08091070190E001962091090130E085
:10200000822393232091080130E08217930709F07F
:10201000CBC00E94D90F811110C08091070190E0C0
:1020200001962091090130E0822393232091080139
:1020300030E08217930709F0B7C00E9467248C0133
:10204000C091E900CF709091EC00892F817090FDD4
:1020500080E8C82B83E08093E90085E0F82E80912A
:10206000EB0085FD42C08091EB0080FF3EC0809177
:10207000EE0087FF3AC08091080190910701981700
:1020800009F457C09091E80095FF8CC0E0910501DC
:10209000F0910601E80FF11D20818F5F90910901F9
:1020A0008923809308012093F1008091E80085FD49
:1020B000E2CF8091E80080FFDECF8091E8008E774C
:1020C0008093E800F0920401D6CF8091070190E060
:1020D00001962091090130E0822393232091080189
:1020E00030E08217930709F44AC0CF70C093E9002B
:1020F00040910701842F90E001962091090130E082
:10210000822393232091080130E08217930709F47A
:102110004EC0E0910501F0910601E40FF11DD0835E
:10212000809107018F5F90910901892380930701B6
:102130003EC08091E80085FF35C0D093F10081E07A
:102140002091F2003091F300232B91F09091E80060
:1021500090FF0EC09091E80095FF03C01092F1002F
:10216000F9CF9091E8009E779093E800F0920401F7
:10217000882309F4AACFCF70C093E90018C08091DA
:102180000401882309F4B1CF0E9467249C018017C1
:10219000910711F4890163CF9091040191509093BC
:1021A0000401F8CF80E0CCCF40910701B2CF80E0AE
:1021B000DF91CF911F910F91FF9008958091A2031D
:1021C000811104C00E94F1150C94531608951092C9
:1021D000A2030895089542E061EC81E00E94021399
:1021E00042E061EC82E00E94021342E261EC83E093
:1021F0000E94021342E261EC84E00C94021380918D
:10220000A503833009F455C030F4813071F0823079
:1022100009F48EC008958A3009F47AC08B3009F42D
:1022200060C0893009F09CC020C08091A403813A2D
:1022300009F096C08091E800877F8093E800809144
:10224000A8039091A903892B21F460E28DE792E025
:1022500003C060E080E090E070E00E94D6138091BF
:10226000E8008B778093E80008958091A403813281
:1022700009F076C08091A8039091A903009719F006
:10228000039709F06DC08091E800877F8093E80094
:102290008091E80082FD05C08091A3038111F8CFF1
:1022A0005FC08091F10080939D028091E8008B7760
:1022B00053C08091A403813A09F052C08091A803D1
:1022C0009091A903892B09F04BC08091E800877F8A
:1022D0008093E8008091E80080FFFCCF809114019A
:1022E00036C08091A4038132D9F58091A8039091E2
:1022F000A903892BA9F58091E800877F8093E800E6
:102300000E9437138091A603809314010C94E9195D
:102310008091A403813221F58091E800877F80932A
:10232000E8000E9437138091A70380939E020895CE
:102330008091A403813AA1F48091E800877F809383
:10234000E8008091E80080FFFCCF80919E0280939E
:10235000F1008091E8008E778093E8000C943713A9
:10236000089580919D0280937C0110929D020E94AD
:102370000C0B0C94E9190C94B1110E941424809157
:10238000A103882329F00E94212481110C94EC12CE
:1023900008950E94352480917C0180939D020895C8
:1023A0000C94C91108950C94D211CF9384B7877FF0
:1023B00084BF0FB6F894A8958091600088618093DF
:1023C0006000109260000FBE90E080E80FB6F894B5
:1023D00080936100909361000FBE8CEE9FE00E949D
:1023E000E7238AE091E00E945C1787E595E00E9470
:1023F000C1050E94F50A0E9410180E94F1150E9462
:10240000531678940E9412188091A303843029F007
:102410000E9441170E94D211F7CF85E495E00E94F7
:10242000C1050E94D31183E395E00E94C105C3E07A
:102430008091A303853019F40E94BD11F9CF0E9449
:1024400016182091E4003091E50080917901909177
:102450007A012817390709F466C08091E400909149
:10246000E50090937A01809379010E94D90F882327
:1024700009F459C08091A303843009F054C08091BD
:10248000E9008F702091EC00922F917020FD90E870
:10249000892BC093E9009091EB0090FF41C090918F
:1024A000EE0097FF3DC09091080120910701291788
:1024B00009F12091E80025FF1DC0E0910501F09190
:1024C0000601E90FF11D30819F5F209109019223E0
:1024D000909308013093F1009091E80095FDE3CFCF
:1024E0009091E80090FFDFCF9091E8009E77909365
:1024F000E800D9CF2091F2003091F300232B81F036
:102500009091E80090FF0CC09091E80095FF03C007
:102510001092F100F9CF9091E8009E779093E80037
:102520008F708093E9000E94411782CF292F3327B3
:1025300023303105C9F060F42130310581F02230BB
:10254000310509F041C084E790E027EB35E040C059
:1025500021323105E1F02232310531F135C082E11D
:1025600090E02BE236E034C099278130910549F0A4
:1025700028F0029749F5EDE6F5E005C0E3EBF5E05C
:1025800002C0E3EAF5E0849190E09F0121C064304D
:102590007105D0F4660F771FFB01E65BFE4F2081CB
:1025A000318189E090E014C06430710568F4FB016A
:1025B000EE0FFF1FEE5BFE4F20813181FB01E25CDD
:1025C000FE4F808190E004C080E090E020E030E0A9
:1025D000FA0131832083089584E189BD86E189BDB4
:1025E00009B400FEFDCF8091D8008F7D8093D80084
:1025F0008091E00082608093E0008091E00081FDA6
:10260000FCCF0895982F973068F59093E9009817BC
:1026100039F07091EC002091ED005091F00003C072
:10262000242F762F50E021FD02C09F5FECCF309128
:10263000EB003E7F3093EB003091ED003D7F309317
:10264000ED003091EB0031603093EB007093EC00C3
:102650002093ED005093F0002091EE0027FDE5CF90
:1026600080E008958F708093E90081E00895809163
:10267000A40387FF11C08091E80082FD05C080910E
:10268000A3038111F8CF11C08091E8008B770BC0B4
:102690008091A303882349F08091E80080FFF8CF60
:1026A0008091E8008E778093E80008952091E400FF
:1026B0003091E50095E64091EC00842F817040FF59
:1026C00023C08091E80080FD1DC08091A303882372
:1026D00099F0853099F08091EB0085FD11C0409113
:1026E000E4005091E5002417350729F3915011F0CB
:1026F0009A01E1CF84E0089582E0089583E008958F
:1027000081E0089580E008954091E80042FFDDCF28
:102710000895CF92DF92EF92FF920F931F93CF9382
:10272000DF93EC018B017A010E945613811135C0B1
:10273000E114F10439F0F70180819181081B190B34
:10274000C80FD91FC12CD12C0115110529F1809179
:10275000E80085FD18C08091E8008E778093E8003E
:102760000E944117E114F10449F0F7018081918141
:10277000C80ED91ED182C08285E00FC00E945613B8
:10278000882311F30AC089918093F1000150110947
:10279000FFEFCF1ADF0AD8CF80E0DF91CF911F91F2
:1027A0000F91FF90EF90DF90CF9008952091AA03B2
:1027B0003091AB032617370748F06115710539F4DE
:1027C0002091E8002E772093E80001C0B901FC01B8
:1027D00020E06115710569F18091A3038823E1F17F
:1027E0008530E1F18091E80083FD3AC08091E800F6
:1027F00082FD2CC08091E80080FFEBCF8091F20039
:102800009091F3006115710551F08830910538F40D
:1028100021912093F100615071090196F3CF21E0DD
:10282000089709F020E08091E8008E778093E80017
:10283000D0CF2111D1CF0AC08091A303882361F0AA
:10284000853061F08091E80083FD0AC08091E80046
:1028500082FFF2CF80E0089582E0089583E008953A
:1028600081E008952091AA033091AB032617370722
:1028700048F06115710539F42091E8002E77209316
:10288000E80001C0B901FC0120E06115710581F18A
:102890008091A303882309F43EC0853009F43DC02C
:1028A0008091E80083FD3BC08091E80082FD2DC04F
:1028B0008091E80080FFE9CF8091F2009091F300D1
:1028C0006115710559F08830910540F424912093E9
:1028D000F1003196615071090196F2CF21E008971D
:1028E00009F020E08091E8008E778093E800CDCF5A
:1028F0002111CECF0AC08091A303882361F08530D7
:1029000061F08091E80083FD0AC08091E80082FFB9
:10291000F2CF80E0089582E0089583E0089581E099
:1029200008951F93CF93DF93CDB7DEB7AA970FB665
:10293000F894DEBF0FBECDBFE4EAF3E08091F10072
:10294000819323E0EC3AF207C9F70E94FF108091CF
:10295000E80083FF2EC18091A4039091A503492F25
:1029600050E04A30510508F024C1FA01EB5CFE4FFB
:102970000C948B26803821F0823809F01AC108C0E7
:102980008091A0039091A103992389F082600FC0E8
:102990008091A8038F70873008F00BC18093E90005
:1029A0008091EB0085FB882780F91092E9009091D7
:1029B000E800977F9093E8008093F1001092F10077
:1029C000D1C0282F2D7F09F0F4C0882319F0823060
:1029D00061F0EFC08091A603813009F0EAC0933026
:1029E00009F080E08093A1032EC08091A60381119D
:1029F0002AC08091A8038F702FEF280F263008F08F
:102A0000D8C08093E9002091EB0020FF1CC09330D8
:102A100021F48091EB00806214C09091EB009061F2
:102A20009093EB0021E030E0A90102C0440F551F54
:102A30008A95E2F74093EA001092EA008091EB0059
:102A400088608093EB001092E9008091E800877F16
:102A50008093E8000E943713ACC08111AAC0109186
:102A6000A6031F778091E3008078812B8093E30099
:102A70008091E800877F8093E8000E94371380915F
:102A8000E80080FFFCCF8091E30080688093E30042
:102A9000111102C082E001C083E08093A30389C0CA
:102AA0008058823008F085C08091A6039091A703DA
:102AB0008C3D53E0950779F583E08A838AE2898328
:102AC0004FB7F894DE01139620E03EE051E2E32F89
:102AD000F0E050935700E49120FF03C0E295EF70BF
:102AE0003F5FEF708E2F90E0EA3010F0C79601C084
:102AF000C0968D939D932F5F243149F74FBF8091EE
:102B0000E800877F8093E8006AE270E0CE010196DA
:102B10000E94D61316C06091A8037091A903AE015C
:102B20004F5F5F4F0E949612BC01892B09F441C090
:102B30009091E800977F9093E80089819A810E94A4
:102B400032148091E8008B778093E80032C080389F
:102B500081F58091E800877F8093E80080919F0352
:102B60008093F1008091E8008E7772CF811121C0AF
:102B70008091A6039091A70399270297D4F480919E
:102B8000E800877F8093E8008091A60380939F03ED
:102B90000E94371380919F03811106C08091E3004A
:102BA00087FD02C081E001C084E08093A3030E94FE
:102BB000EB108091E80083FF0AC08091E800877FD6
:102BC0008093E8008091EB0080628093EB00AA96EE
:102BD0000FB6F894DEBF0FBECDBFDF91CF911F912E
:102BE00008950E9462160E946A16E0EEF0E080816D
:102BF00081608083E8EDF0E080818F77808319BC6D
:102C0000A7EDB0E08C918E7F8C9380818F7E808346
:102C10001092A20308950F931F93CF93DF930E9406
:102C200062160E946A16C8EDD0E088818F7788838B
:102C300088818068888388818F7D8883E7EDF0E0D4
:102C400080818068808319BC1092A30310929F0337
:102C50001092A1031092A00300EE10E0F801808111
:102C60008B7F808388818160888342E060E080E0A0
:102C70000E940213E1EEF0E080818E7F8083E2EE1D
:102C8000F0E0808181608083808188608083F801AA
:102C900080818E7F8083888180618883DF91CF915E
:102CA0001F910F910895E8EDF0E080818F7E808381
:102CB000E7EDF0E080818160808381E08093A20372
:102CC0000C940B16E8EDF0E080818C7F80831092ED
:102CD000E20008951092DA001092E10008951F9228
:102CE0000F920FB60F9211240BB60F922F933F93B2
:102CF0004F935F936F937F938F939F93AF93BF9304
:102D0000EF93FF938091E10082FF0BC08091E2007E
:102D100082FF07C08091E1008B7F8093E1000E94D9
:102D200040178091DA0080FF1FC08091D80080FF9B
:102D30001BC08091DA008E7F8093DA008091D900E9
:102D400080FF0DC084E189BD86E189BD09B400FE24
:102D5000FDCF81E08093A3030E94DE1005C019BC63
:102D60001092A3030E94E7108091E10080FF19C038
:102D70008091E20080FF15C08091E2008E7F8093F9
:102D8000E2008091E20080618093E2008091D800AF
:102D900080628093D80019BC85E08093A3030E94D1
:102DA000BB118091E10084FF30C08091E20084FF7C
:102DB0002CC084E189BD86E189BD09B400FEFDCF48
:102DC0008091D8008F7D8093D8008091E1008F7E24
:102DD0008093E1008091E2008F7E8093E2008091F9
:102DE000E20081608093E20080919F03882311F0CC
:102DF00084E007C08091E30087FD02C081E001C04C
:102E000083E08093A3030E94D0118091E10083FFAF
:102E100024C08091E20083FF20C08091E100877F81
:102E20008093E10082E08093A30310929F0380913E
:102E3000E1008E7F8093E1008091E2008E7F80939D
:102E4000E2008091E20080618093E20042E060E075
:102E500080E00E9402130E94EA10FF91EF91BF915F
:102E6000AF919F918F917F916F915F914F913F9122
:102E70002F910F900BBE0F900FBE0F901F901895C3
:102E80000895CF938091A3038823A1F0C091E90016
:102E9000CF709091EC00892F817090FD80E8C82B55
:102EA0001092E9008091E80083FD0E949114CF7098
:102EB000C093E900CF9108959093A4028093A30258
:102EC0000895E091A302F091A402309721F00190BF
:102ED000F081E02D099480E00895EF92FF920F9326
:102EE0001F93CF93DF93E091A302F091A402309758
:102EF000B1F18C010280F381E02D09958091990355
:102F000082FF2DC080FF04C084E397E00E94C105CA
:102F1000E80110E28EE2E82E87E0F82E8091990316
:102F200080FF0BC088811F928F93FF92EF920E94C7
:102F30005A060F900F900F900F901150219611117B
:102F4000EDCF8091990380FF0AC08CE297E0DF917A
:102F5000CF911F910F91FF90EF900C94C105DF91DD
:102F6000CF911F910F91FF90EF900895CF93DF9332
:102F70002091A1023091A2022817390709F19093FC
:102F8000A2028093A102E091A302F091A4023097E3
:102F9000B9F0EC010680F781E02D09958091990345
:102FA00082FF0EC080FF0CC0DF93CF938EE197E0CD
:102FB0009F938F930E945A060F900F900F900F903F
:102FC000DF91CF910895CF93DF9320919F023091AD
:102FD000A0022817390709F19093A00280939F025D
:102FE000E091A302F091A4023097B9F0EC010084C3
:102FF000F185E02D09958091990382FF0EC080FF35
:103000000CC0DF93CF938EE097E09F938F930E9445
:103010005A060F900F900F900F90DF91CF91089567
:103020000C94B9180E945E240C94F90ABF92CF92B6
:10303000DF92EF92FF920F931F93CF93DF9300D015
:1030400000D01F92CDB7DEB70E94230B06EA12E034
:10305000F12C8F2D0E94060BB82EF801C080C826D7
:1030600039F4F3940F5F1F4FF0E1FF12F2CF30C03D
:103070008091990381FD0E94BA18D12CEE24E3942B
:103080008C2D8E21F9F0D982FA8291E08B2D8E2140
:1030900009F490E09B830E9467248160782F9D83D0
:1030A0008C8349815A816B818D810E94F0184981FE
:1030B0005A816B817C818D810E94FF23F801808180
:1030C0008E258083D394EE0CF8E0DF12D9CFC9CFE0
:1030D0008FEF89838A831B820E9467248160782F07
:1030E0009D838C8349815A816B818D810E94F01868
:1030F0000E94FE230E9461179091A502891741F159
:103100000E9461178093A5029091990392FF0EC0CF
:1031100090FF0CC01F928F938FE397E09F938F9344
:103120000E945A060F900F900F900F908091A50269
:103130000F900F900F900F900F90DF91CF911F91F4
:103140000F91FF90EF90DF90CF90BF900C941024E0
:103150000F900F900F900F900F90DF91CF911F91D4
:103160000F91FF90EF90DF90CF90BF9008950C9457
:10317000140B0895EF92FF920F931F93CF93DF9359
:1031800085E597E00E94C105C0E0D0E08DE1E82E22
:1031900081E0F82E0AE417E08C2F0E94060B0E94B3
:1031A000EC23FF92EF921F928F93DF93CF931F93A5
:1031B0000F930E945A0621968DB79EB708960FB6B8
:1031C000F8949EBF0FBE8DBFC031D10529F7DF91A6
:1031D000CF911F910F91FF90EF900895089508955A
:1031E000CF93DF93CDB7DEB72B970FB6F894DEBF42
:1031F0000FBECDBF942F4F83252F588769877A87BD
:103200008B874A855B85452B31F02F3F31F481E078
:103210009F3F19F403C081E001C080E080FD07C03A
:103220004F81588569857A858B850E94FF23DE0151
:10323000119686E0FD0111928A95E9F785E0FE017D
:10324000379601900D928A95E1F749815A816B81F9
:103250007C818D819E810E94FA1F2B960FB6F89477
:10326000DEBF0FBECDBFDF91CF910895CF938823EE
:1032700009F465C0C82F8CEF8C0F813A20F080E5EF
:103280008C0F8E3248F48C2F0E943826811157C043
:103290008C2F0E94E2220CC080E28C0F883058F400
:1032A000C77081E001C0880FCA95EAF70E948723A2
:1032B000CF910C94C1238BE58C0F833078F4C53A01
:1032C00029F0C63A31F083E890E005C081E890E04B
:1032D00002C082E890E0CF910C94B61788E58C0F7D
:1032E000873168F5C83A89F0C93A91F0CA3A99F03D
:1032F000CB3AA1F0CC3AA9F0CD3AB1F0CE3AB9F040
:10330000CF3AC1F080E090E017C082EE90E014C0A8
:1033100089EE90E011C08AEE90E00EC085EB90E05F
:103320000BC086EB90E008C083EB90E005C084EB17
:1033300090E002C087EB90E0CF910C94E317CF911F
:103340000895882349F19CEF980F913A20F090E579
:10335000980F9E3218F40E9432230DC090E2980F0D
:10336000983058F4877091E001C0990F8A95EAF778
:10337000892F0E948D230C94C1239BE5980F9330D5
:1033800020F480E090E00C94B617885A873120F43E
:1033900080E090E00C94E3170895882321F00E94C8
:1033A00087230C94C1230895882321F00E948D2344
:1033B0000C94C12308950E94A7230E9476230E94A3
:1033C000C12380E090E00E94B61780E090E00C946A
:1033D000E3170E9497230C94DB19CF92DF92EF92B0
:1033E000FF920F931F93CF93DF9300D000D01F92D3
:1033F000CDB7DEB76C010E941224811101C385E0B4
:10340000F601DE01119601900D928A95E1F7F60121
:1034100040815181238134812115310531F05F3F95
:1034200031F481E04F3F19F403C081E001C080E036
:1034300080FDE6C2F601F280E580E2948FE0E822AA
:1034400049835A83FB82722F3D832C836F2D8D819C
:103450000E945E228C010E945D220E944D21E12F7C
:10346000E295EF708E2F90E0FC01E15CFE4F0C9432
:103470008B26812F807F1F70882311F01295107F7B
:10348000FF20B9F0112329F0812F0E949A230E9476
:10349000C123802F0F900F900F900F900F90DF910E
:1034A000CF911F910F91FF90EF90DF90CF900C94F0
:1034B0003619802F0E94A119112309F4A1C2812F6E
:1034C0000E94A0230F900F900F900F900F90DF910C
:1034D000CF911F910F91FF90EF90DF90CF900C94C0
:1034E000C123812F807F1F70803211F01295107FD1
:1034F000002319F0013009F12BC0FF20A9F0EE20C4
:1035000059F1F1E0812FEF1228C00F900F900F902A
:103510000F900F90DF91CF911F910F91FF90EF903F
:10352000DF90CF900C94AA23EE2021F021E0E21648
:1035300009F466C20E94AD234DC0FF20E9F085E08A
:103540008E1508F45DC20E948423812329F042C0B5
:10355000FF20F1F1E11015C0812F0F900F900F9017
:103560000F900F90DF91CF911F910F91FF90EF90EF
:10357000DF90CF900C94CD1994E09E1508F440C2D2
:1035800029C0F601858180FF13C08F708583E4CF49
:10359000003F09F472C108F03EC180E4800F803220
:1035A00008F442C1FF2009F4D3C1EE2009F483C11D
:1035B000802F0E943619093309F0C3C1FFEF21EEB5
:1035C00084E0F15020408040E1F700C0000018C2C4
:1035D000E110C0C1812F42C1812F869586958370ED
:1035E00019F08130B9F00CC2FF2019F0C8019370B6
:1035F00002C080E090E00F900F900F900F900F901E
:10360000DF91CF911F910F91FF90EF90DF90CF90BE
:103610000C94B617FF2019F0C801937002C080E027
:1036200090E00F900F900F900F900F90DF91CF913F
:103630001F910F91FF90EF90DF90CF900C94E317C4
:10364000812F837009F070C0F110DAC1202F22950C
:1036500026952770220F220F602F6F70862F90E023
:10366000A0E0B0E06C017D01022E04C0CC0CDD1C9A
:10367000EE1CFF1C0A94D2F704FF12C08FE090E00A
:10368000A0E0B0E004C0880F991FAA1FBB1F2A95B5
:10369000D2F7BC01CD01609570958095909503C0DF
:1036A00060E070E0CB011695169513701230B1F002
:1036B00040F56C297D298E299F29113031F10F9019
:1036C0000F900F900F900F90DF91CF911F910F915E
:1036D000FF90EF90DF90CF900C9472216C297D29A0
:1036E0008E299F290F900F900F900F900F90DF91D0
:1036F000CF911F910F91FF90EF90DF90CF900C949E
:103700008C210E947221C701B6010F900F900F907B
:103710000F900F90DF91CF911F910F91FF90EF903D
:10372000DF90CF900C945821FF2019F0812F8170E9
:1037300001C08695882309F463C1202F2295269520
:103740002770220F220F602F6F70862F90E0A0E06D
:10375000B0E06C017D01022E04C0CC0CDD1CEE1C1F
:10376000FF1C0A94D2F704FF12C08FE090E0A0E0A3
:10377000B0E004C0880F991FAA1FBB1F2A95D2F77B
:10378000BC01CD01609570958095909503C060E077
:1037900070E0CB011695169513701230B1F040F51C
:1037A0006C297D298E299F29113031F10F900F90BE
:1037B0000F900F900F90DF91CF911F910F91FF907D
:1037C000EF90DF90CF900C9439226C297D298E29BF
:1037D0009F290F900F900F900F900F90DF91CF9136
:1037E0001F910F91FF90EF90DF90CF900C944B22A0
:1037F0000E943922C701B6010F900F900F900F90D1
:103800000F90DF91CF911F910F91FF90EF90DF907C
:10381000CF900C942722023F09F45EC008F449C0FF
:10382000033F09F46CC0BECE902F9071E92E812F1A
:103830008F71FF2051F00E94C021802FEE2019F0DF
:103840008295807F8ACE8F7088CE0E94E121802F62
:10385000EE2019F08295807F01C08F700F900F903D
:103860000F900F900F90DF91CF911F910F91FF90CC
:10387000EF90DF90CF900C94D419FF20A9F0E4E0F2
:10388000EE1508F4BDC0812F8F710F900F900F902F
:103890000F900F90DF91CF911F910F91FF90EF90BC
:1038A000DF90CF900C940622F5E0FE1508F4A8C036
:1038B000EACFFF2099F0812F8F710F900F900F901A
:1038C0000F900F90DF91CF911F910F91FF90EF908C
:1038D000DF90CF900C94C021FF2069F3812F8F716E
:1038E0000F900F900F900F900F90DF91CF911F913D
:1038F0000F91FF90EF90DF90CF900C94E121FF208B
:1039000089F0812F8F710F900F900F900F900F9073
:10391000DF91CF911F910F91FF90EF90DF90CF90AB
:103920000C94AB210F900F900F900F900F90DF91A0
:10393000CF911F910F91FF90EF90DF90CF900C945B
:10394000A621033509F43ACE073409F059C036CE22
:10395000EE2021F2802F0F900F900F900F900F907C
:10396000DF91CF911F910F91FF90EF90DF90CF905B
:103970000C94A119412F4F70602FC6010E94D324CF
:103980000F900F900F900F900F90DF91CF911F919C
:103990000F91FF90EF90DF90CF900C94A820011131
:1039A0002FC0FF2069F10E94E9192FEF80E792E014
:1039B000215080409040E1F700C000000F900F9030
:1039C0000F900F900F90DF91CF911F910F91FF906B
:1039D000EF90DF90CF900C94B424412F4F70602F64
:1039E000C6010F900F900F900F900F90DF91CF9125
:1039F0001F910F91FF90EF90DF90CF900C94D62401
:103A00000F900F900F900F900F90DF91CF911F911B
:103A10000F91FF90EF90DF90CF9008951F93CF9379
:103A2000DF9300D000D01F92CDB7DEB7942F49832B
:103A3000252F5A836B837C838D834C815D81452B3D
:103A400031F02F3F31F481E09F3F19F403C081E052
:103A500001C080E0182F117080FD31C049815A816A
:103A60006B817C818D810E945E22292F22952F708F
:103A70002C3030F42A30A0F42250223030F022C012
:103A80002C30C9F02F30B9F01DC0853A28F48430AD
:103A9000C0F4823028F415C090E2980F983088F076
:103AA000883E30F4803E68F48450813A58F409C06E
:103AB000803F41F406C093FB112710F903C010E0CA
:103AC00001C011E0812F0F900F900F900F900F9079
:103AD000DF91CF911F910895CF93DF9300D000D055
:103AE0001F92CDB7DEB70F900F900F900F900F90F1
:103AF000DF91CF910895CF93DF9300D000D000D015
:103B0000CDB7DEB726960FB6F894DEBF0FBECDBF99
:103B1000DF91CF9108951F93CF93DF93C091B602A9
:103B200016E08091B702C81799F0D0E01C9FF00111
:103B30001D9FF00D1124E854FD4F40815181628199
:103B40007381848195810E947B1D2196C770E9CF86
:103B5000DF91CF911F9108954091E8025091E902C1
:103B60006091EA027091EB028091EC029091ED027B
:103B70000C947B1D0F931F93CF93DF938091ED02E5
:103B800082958F7009F05DC08091EA02882309F464
:103B900058C08091B6021091B7026091E80270910E
:103BA000E902C091EB02D091EC0291E06F3F09F085
:103BB00090E0292F06E0811709F443C0209721F0F7
:103BC0007F3F21F030E003C031E001C0322F90E0B0
:103BD00030FD34C0089FF001099FF00D1124DF0172
:103BE000A854BD4F11963C911197371327C03C91B3
:103BF000361324C012963C91129731111FC01396B0
:103C00004D915C9114974C1B5D0B483C5105B0F4F1
:103C10008091ED028F7080618093ED02E354FD4F3F
:103C200080818F708061808388EE92E00E94ED1920
:103C3000DF91CF911F910F910C948B1D019687708E
:103C4000BACFDF91CF911F910F9108959F92AF92BC
:103C5000BF92CF92DF92EF92FF920F931F93CF9379
:103C6000DF93CDB7DEB761970FB6F894DEBF0FBE16
:103C7000CDBF8C0185E0F801DE011D9601900D920B
:103C80008A95E1F7F80140815181F280C380D480A8
:103C90009091E8026091E9022091EB023091EC02F0
:103CA0002115310531F06F3F31F481E09F3F19F468
:103CB00003C081E001C080E0F82FF1709F2E80FDED
:103CC00052C188EEA82E82E0B82EE090EA02F601FA
:103CD000E21BF30BEE2009F4E8C08091ED02E83C12
:103CE000F10508F0A4C0282F207F09F053C0561317
:103CF00013C0491311C0EF2CF1100EC08F708061FA
:103D00008093ED020E94AC1DC5010E94ED198091C7
:103D1000ED02F80185835BC1C114D10431F05F3F2E
:103D200031F481E04F3F19F403C081E001C080E02D
:103D300080FD03C081E08F2502C080E090E0F82F75
:103D4000F170EF2E80FF1CC08091B6022091B70267
:103D500036E0821709F418C190E0389FF001399FCE
:103D6000F00D1124E854FD4F6181561306C06081A7
:103D7000461303C06281F61203C001968770E9CF33
:103D8000EF2CFF2009F423C18091ED028160809324
:103D9000ED0262C0561306C0491304C0F11002C000
:103DA000F801A7C04D875E87FF867C2DD98AC88A17
:103DB0006F2D89890E940E1D882399F1FF2089F1BA
:103DC0002091ED02822F82958F7090E0029774F01F
:103DD0008091E8029091E90298878F831986DB86AB
:103DE000CA862C87CE0107960E94ED1986E0F8015D
:103DF000A8EEB2E001900D928A95E1F70E94BA1DFB
:103E00000E94AC1D11C0561749F14D875E87FF8691
:103E10007C2DD98AC88A6F2D89890E940E1D811137
:103E20002CC0C8010E94ED19EE24E394D0C0282FC5
:103E3000207F49F77C2DD98AC88A6F2D89890E94F5
:103E40006C1D88EE92E00E94ED1986E0F50111925A
:103E50008A95E9F70E94AC1DE12CB9C04913D5CF72
:103E6000F110D3CFF8018583C8010E94ED1986E0D7
:103E7000F50111928A95E9F7AAC0FF2091F22091ED
:103E8000ED02822F82958F7090E002970CF4AECFF6
:103E90008091E8029091E9029A8389831B82DD82F6
:103EA000CC822E83CE0101969FCFE83CF10508F02D
:103EB0004BC0EF2CFF2009F4B4CF561330C0491388
:103EC0002EC02091ED0220FD21C0822F82958F709F
:103ED000482F50E041155105C9F0F80125834F30B6
:103EE000510541F08F5F982F9295907F822F8F70B0
:103EF000892B8583C8010E94ED1986E0F801A8EEA0
:103F0000B2E001900D928A95E1F72AC086E0F801AF
:103F1000A8EEB2E001900D928A95E1F758C04D8766
:103F20005E87FF867C2DD98AC88A6F2D89890E9479
:103F30000E1D81115BCF8091ED0281608093ED02B7
:103F4000C8010E94ED1943C07C2DD98AC88A6F2D03
:103F500089890E946C1D86E0F50111928A95E9F726
:103F60000E94AC1D34C0FF2009F45BCF4D875E87F3
:103F7000FF867C2DD98AC88A6F2D89890E940E1DE3
:103F8000882309F44ECF32CF7C2DD98AC88A6F2D71
:103F900089890E945E22292F22952F70223028F4D1
:103FA0009F7039F0811105C00BC0243028F49F7038
:103FB00049F4805E883020F0C8010E94ED199E2CE3
:103FC000E92C05C0F8019581907F99F7F9CF8E2DE6
:103FD00061960FB6F894DEBF0FBECDBFDF91CF91D3
:103FE0001F910F91FF90EF90DF90CF90BF90AF9017
:103FF0009F9008951F93CF93DF93CDB7DEB72C9793
:104000000FB6F894DEBF0FBECDBF4F8358876987C8
:104010007A878B879C87CE0107960E94261E88236D
:10402000D1F09F8188852A853B85232B31F08F3FF6
:1040300031F481E09F3F19F403C081E001C080E0CA
:1040400080FD47C04F81588569857A858B859C8521
:104050000E947B1D3EC086E0FE013796DE01119670
:1040600001900D928A95E1F7FF81E8856A857B854D
:104070006115710531F0EF3F31F481E0FF3F19F434
:1040800003C081E001C080E080FD23C02091B70221
:1040900030E0C9010196877099274091B60250E03F
:1040A00084179507F1F1F983EA837D836C8396E0A9
:1040B000929FD001939FB00D1124A854BD4FFE01D3
:1040C000319601900D929A95E1F78093B7020E9484
:1040D0008B1D16E08091B6029091B702891771F19D
:1040E000189FC001112488549D4F0E94261E8823CA
:1040F00029F1E091B6021E9FF0011124E854FD4F12
:104100004081518162817381848195810E947B1DF0
:104110008091B60290E00196877099278093B6024D
:10412000D9CF0E94E9191092B7021092B602E8EEB8
:10413000F2E086E0DF011D928A95E9F72C960FB632
:10414000F894DEBF0FBECDBFDF91CF911F910895D0
:10415000DF92EF92FF920F931F93CF93DF93FC01B7
:10416000892B09F488C0E12CF12CDD24D394EF01D4
:1041700021968491853709F460C058F4843708F09B
:104180004EC0843008F068C08130D1F0823071F1C7
:1041900072C0883709F45BC050F4863709F453C005
:1041A000873709F068C08E2D0E94942352C09CE787
:1041B000980F903708F05FC08F770E94A1194EC00A
:1041C0008F010E5F1F4FFE01849190E2980F98308F
:1041D00050F48770FD2D01C0FF0F8A95EAF78F2FED
:1041E0000E949A2315C00E94361914C08F010E5FD9
:1041F0001F4FFE01849190E2980F983068F4877009
:10420000FD2D01C0FF0F8A95EAF78F2F0E94A02392
:104210000E94C123E80122C00E94A119FBCFCF0157
:104220000296FE01C491CC2361F0EFE9FFE03197E3
:10423000F1F700C00000C150F6CFCF010296FE0199
:10424000F490EC010BC00E948423E82E07C00E946A
:1042500097230E94C12302C00E9436198F2D882304
:1042600041F0EFE9FFE03197F1F700C00000815025
:10427000F6CFFE017CCFDF91CF911F910F91FF9080
:10428000EF90DF90089560936E0370936F038093B7
:104290007003909371030C940F240895609372033C
:1042A0007093730380937403909375030C940E249E
:1042B0000F931F9300917203109173032091740365
:1042C00030917503602B712B822B932B60937203BB
:1042D0007093730380937403909375031F910F91F0
:1042E0000C940E240F931F9300917203109173038B
:1042F00020917403309175036023712382239323EB
:1043000060937203709373038093740390937503A7
:104310001F910F910C940E240F931F930091720321
:1043200010917303209174033091750360277127F6
:1043300082279327609372037093730380937403AF
:10434000909375031F910F910C940E2460E070E020
:10435000CB010C9443210F931F9341E050E060E0A8
:1043600070E08A019B0104C0000F111F221F331F40
:104370008A95D2F7C901B8011F910F910C9443217E
:104380000F931F9341E050E060E070E004C0440FE1
:10439000551F661F771F8A95D2F780916E03909103
:1043A0006F03A0917003B09171038A019B01082BE8
:1043B000192B2A2B3B2BC901B8011F910F910C948B
:1043C00043210F931F9341E050E060E070E004C090
:1043D000440F551F661F771F8A95D2F74095509559
:1043E0006095709580916E0390916F03A09170031A
:1043F000B09171038A019B01082319232A233B23CF
:10440000C901B8011F910F910C9443210F931F9381
:1044100041E050E060E070E004C0440F551F661FAB
:10442000771F8A95D2F780916E0390916F03A091C8
:104430007003B09171038A019B01082719272A276D
:104440003B27C901B8011F910F910C9443210F9391
:104450001F9300916E0310916F03209170033091B0
:104460007103602B712B822B932B1F910F910C9456
:1044700043210F931F9300916E0310916F032091BE
:1044800070033091710360237123822393231F9162
:104490000F910C9443210F931F9300916E03109181
:1044A0006F03209170033091710360277127822779
:1044B00093271F910F910C94432108958F929F92FF
:1044C000AF92BF92DF92EF92FF920F931F93CF9321
:1044D000DF9300D000D01F92CDB7DEB76B837C8313
:1044E0008D838A018C819D81892B31F01F3F31F4AE
:1044F00081E04F3F19F403C081E001C080E080FFFC
:1045000003C080E090E04DC08B818823D1F1809082
:104510006E0390906F03A0907003B0907103809130
:10452000720390917303A0917403B0917503882A6C
:10453000992AAA2ABB2A8FE1E82EF12CD501C401C1
:104540000E2C04C0B695A795979587950A94D2F737
:1045500080FD06C081E0E81AF10880F7D12C07C081
:10456000DE2CB8018E2D0E946306019799F388E036
:10457000189FF0011124E251FD4FE00FF11DD08290
:1045800009C088E0189FF0011124E251FD4FE00FAF
:10459000F11DD08009831A8369817A818D2D0E9453
:1045A00063060F900F900F900F900F90DF91CF91B7
:1045B0001F910F91FF90EF90DF90BF90AF909F9071
:1045C0008F90089590911401992379F1909115019C
:1045D000992359F1982F9695969596959F31A1F02C
:1045E000E0911601F0911701E90FF11D877021E0AC
:1045F00030E0A90102C0440F551F8A95E2F7CA01B5
:104600009181892B818308959091990390FF29C00E
:104610001F928F9380E897E09F938F930E945A0692
:104620000F900F900F900F900895209116013091E8
:104630001701F90132969FEF40E05191851789F0FB
:104640009F3F19F4511101C0942F4F5F4E31A9F7CC
:104650009F3F39F0F901E90FF11D97FDFA9582832B
:104660000895089590911401992381F19091150175
:10467000992361F1982F9695969596959F31A9F07B
:10468000E0911601F0911701E90FF11D877021E00B
:1046900030E0A90102C0440F551F8A95E2F7CA0114
:1046A000809591818923818308959091990390FF4A
:1046B0001CC01F928F9382E697E09F938F930E9476
:1046C0005A060F900F900F900F900895E0911601E9
:1046D000F09117019F01225E3F4F9281891301C023
:1046E00012823196E217F307C1F7089581E090E056
:1046F000E0911601F0911701E80FF91F1082019661
:1047000080329105A9F708958091980308959091BA
:104710009803892B8093980308958095909198032E
:1047200089238093980308958093980308951092A5
:104730009803089590919703892B80939703089588
:104740008095909197038923809397030895109201
:104750009703089580937603089510927603089541
:104760008091160190911701FC0131969C01205E09
:104770003F4F80E0919191118F5FE217F307D1F7DE
:104780000895E0911601F0911701809198038083BC
:10479000E0911601F0911701908180919703892B88
:1047A000808380917603882361F0E0911601F09177
:1047B00017019081892B80830E94B0238111109270
:1047C000760380911601909117010C946D179093C8
:1047D00059018093580108958295982F937344E06E
:1047E000949F900111248C7C86958695282B822F8E
:1047F0008575880F2A7A2695822B08950895CF9380
:10480000DF9300D000D01F92CDB7DEB70F900F908E
:104810000F900F900F90DF91CF9108950895089514
:104820000C94B71880E0089583B7817F8C6083BFB4
:1048300083B7816083BF7894889583B78E7F83BF69
:104840000895CF930E94EE180E94230B0E94EF1848
:10485000C0E08C2F0E94060B811104C0CF5FC031D5
:10486000C1F701C081E0CF9108950E940C0B0C9418
:10487000E9191F920F920FB60F9211248F939F93F5
:10488000AF93BF9380919A0390919B03A0919C0357
:10489000B0919D034196A11DB11D80939A03909301
:1048A0009B03A0939C03B0939D03BF91AF919F91F5
:1048B0008F910F900FBE0F901F90189582E084BDCE
:1048C00093E095BD9AEF97BD80936E0008952FB742
:1048D000F89480919A0390919B03A0919C03B091CE
:1048E0009D032FBF08952FB7F89460919A0370919C
:1048F0009B0380919C0390919D032FBF08959C0181
:104900004FB7F89480919A0390919B03A0919C03D8
:10491000B0919D034FBF821B930B089578941F9213
:104920000F920FB60F9211248F939F93AF93BF9363
:1049300080919A0390919B03A0919C03B0919D0359
:104940000196A11DB11D80939A0390939B03A093A0
:104950009C03B0939D03BF91AF919F918F910F9056
:104960000FBE0F901F9018950E94F115F89487E7DD
:1049700097E7909301088093000887E090EBDC01B3
:104980008093AC039093AD03A093AE03B093AF03B9
:104990009CE088E10FB6F894A895809360000FBE64
:1049A00090936000FFCF80E090E008950895CF934A
:1049B000C82F1F928F9384EA97E09F938F930E9452
:1049C0005A0681E090E0A0E0B0E0BC01CD0104C057
:1049D000660F771F881F991FCA95D2F70E944E2134
:1049E0000F900F900F900F90CF910C94E919CF93E7
:1049F0008732A8F58E3108F02BC1803109F49FC0B1
:104A0000F8F4873009F464C0A8F4863009F024C1B2
:104A100080919903817F8E7F8093990389EA97E043
:104A20000E94C1058CE89AE00E94C10581E0809354
:104A30009E034CC08B30F1F18E3009F46CC00CC178
:104A4000863109F4B0C020F4813109F4EDC004C10D
:104A5000893109F491C08B3109F449C0FDC0883314
:104A600049F150F4893209F4F1C0853309F4EEC0FC
:104A7000873209F0F1C0EAC0833409F4E7C028F4B2
:104A80008A3308F4E9C08953E4C0883409F0E4C0EB
:104A90000E94E9198BE79AE00E94C1052FEF83ED90
:104AA00090E3215080409040E1F700C000000E9458
:104AB000B4240CC084EC97E05CC082E69AE00E94CB
:104AC000C10580919903816080939903C1E0C9C0B9
:104AD00080919903C82FC17080FFEFCF8EE69AE0D6
:104AE0000E94C10580919903817F8E7F3DC0909186
:104AF000990391FBCC27C0F981E0C827892FC0FB1F
:104B000081F980939903CC2319F085E59AE027C0B9
:104B100087E49AE02EC09091990392FBCC27C0F9CC
:104B200081E0C827892FC0FB82F980939903CC23A9
:104B300019F088E39AE013C088E29AE01AC09091D5
:104B4000990393FBCC27C0F981E0C827892FC0FBCC
:104B500083F980939903CC2351F08CE19AE00E9471
:104B6000C105809199038160809399037AC08FE099
:104B70009AE00E94C105AACF80E09AE00E94C10598
:104B80008AED99E00E94C10582E999E00E94C10581
:104B90008AE699E00E94C1058EE199E00E94C10574
:104BA00082EF98E0E6CF84EE98E00E94C1050E9473
:104BB00061171F928F938AEC98E09F938F930E94C6
:104BC0005A06809114011F928F9383EB98E09F9374
:104BD0008F930E945A0680919E021F928F9380EAC3
:104BE00098E09F938F930E945A06809115011F921F
:104BF0008F938DE898E09F938F930E945A060E94AE
:104C000073249F938F937F936F9386E798E09F938E
:104C10008F930E945A068DB79EB746960FB6F894AA
:104C20009EBF0FBE8DBF52CF0E94E919C0911501E2
:104C300081E0C827C0931501CC2329F08CE698E0C9
:104C40000E94C1050EC081E698E093CF80E001C0CC
:104C50008D510E94D7243ACF8FE598E00E94C1057C
:104C6000C0E08C2FCF91089580E008950C943426F5
:104C7000CF93C82F80919E03882319F0813059F07B
:104C800042C0E0911601F09117018081823261F0FB
:104C90008434D9F509C0E0911601F09117018081A3
:104CA000823211F0843461F48C2F0E9436268111F7
:104CB00004C08C2F0E94F72424C081E090E021C022
:104CC0008C2F0E94342681111BC0C43189F018F446
:104CD000CB3029F010C0C93259F0C83361F489EAE9
:104CE00097E00E94C10580EA97E00E94C10508C0D4
:104CF00010929E030CC08EE997E00E94C10507C088
:104D000081E0817006C010929E0380E002C080E0C6
:104D1000F8CFCF910895EE0FFF1F0024001C0BBEAB
:0C4D20000790F691E02D0994F894FFCF65
:104D2C000080FFFF057D010000FF190F860F1C0F8F
:104D3C00510F1D0F010177035F5A313530005F3F72
:104D4C003F3F3F005F4154383400415400585400F9
:104D5C004E4F4E45005445524D494E414C00403645
:104D6C002239CE06980676063D06C905E205FB05F6
:084D7C001B06001000080004F2
:106800008800EA44E944E244040005000600070069
:10681000080009000A000B000C000D000E000F001C
:1068200010001100120013001400150016001700CC
:10683000180019001A001B001C001D001E001F007C
:10684000200021002200230024002500260027002C
:10685000280029002A002B002C002D002E002F00DC
:10686000300031003200330034003500360037008C
:10687000380039003A003B003C003D003E003F003C
:1068800040004100420043004400450046004700EC
:10689000480049004A004B004C004D004E004F009C
:1068A000500051005200530054005500560057004C
:1068B000580059005A005B005C005D005E005F00FC
:1068C0006000610062006300640065A185006700EC
:1068D000680069006A006B006C006D006E006F005C
:1068E0007000710072007300890087008A008B00BD
:1068F000E000E100E200E300E400E500E600E7007C
:106900000100010001000100EA4401000100E2442D
:106910000100010001000100460001004A004B0097
:10692000010001004700480001000100E9440100A6
:106930000100010001000100010001003A003B00DC
:106940003C003D003E003F0040004100420043004B
:10695000010035004C0039000100440045005200A0
:1069600049000100010050004F0029004D004E0079
:1069700051000100010001000100010001000100BF
:1069800001000100010001000100010001000100FF
:1069900001000100010001000100010001004D00A3
:1069A0004A004E004B0001000100010001000100FF
:1069B00001000100010001000100010001000100CF
:1069C00001000100010001000100010001000100BF
:1069D00001000100010001000100010001000100AF
:1069E0000100010001000100490001000100010057
:1069F000010001000100010001000100010001008F
:00000001FF
